{
  "contractName": "RedEnvelope",
  "abi": [
    {
      "inputs": [],
      "stateMutability": "nonpayable",
      "type": "constructor"
    },
    {
      "anonymous": false,
      "inputs": [
        {
          "indexed": false,
          "internalType": "bool",
          "name": "claimed",
          "type": "bool"
        }
      ],
      "name": "Claimed",
      "type": "event"
    },
    {
      "anonymous": false,
      "inputs": [
        {
          "indexed": false,
          "internalType": "bool",
          "name": "withdrawn",
          "type": "bool"
        }
      ],
      "name": "CreatorWithdrawn",
      "type": "event"
    },
    {
      "anonymous": false,
      "inputs": [
        {
          "indexed": false,
          "internalType": "bool",
          "name": "created",
          "type": "bool"
        }
      ],
      "name": "EnvelopCreated",
      "type": "event"
    },
    {
      "inputs": [
        {
          "internalType": "uint256",
          "name": "_tokenAmount",
          "type": "uint256"
        },
        {
          "internalType": "uint256",
          "name": "_participantsLimit",
          "type": "uint256"
        },
        {
          "internalType": "string",
          "name": "_message",
          "type": "string"
        }
      ],
      "name": "createEnvelope",
      "outputs": [
        {
          "internalType": "bytes",
          "name": "_envelopeId",
          "type": "bytes"
        }
      ],
      "stateMutability": "payable",
      "type": "function",
      "payable": true
    },
    {
      "inputs": [
        {
          "internalType": "bytes",
          "name": "_envelopeId",
          "type": "bytes"
        }
      ],
      "name": "claim",
      "outputs": [],
      "stateMutability": "nonpayable",
      "type": "function"
    },
    {
      "inputs": [
        {
          "internalType": "bytes",
          "name": "_envelopeId",
          "type": "bytes"
        }
      ],
      "name": "creatorWithdraw",
      "outputs": [],
      "stateMutability": "nonpayable",
      "type": "function"
    },
    {
      "inputs": [
        {
          "internalType": "address",
          "name": "_creatorAddress",
          "type": "address"
        }
      ],
      "name": "getCreatorEnvelopes",
      "outputs": [
        {
          "components": [
            {
              "internalType": "address",
              "name": "creator",
              "type": "address"
            },
            {
              "internalType": "uint256",
              "name": "tokenAmount",
              "type": "uint256"
            },
            {
              "internalType": "uint256",
              "name": "participantsLimit",
              "type": "uint256"
            },
            {
              "internalType": "address[]",
              "name": "participants",
              "type": "address[]"
            },
            {
              "internalType": "uint256[]",
              "name": "participantsPrize",
              "type": "uint256[]"
            },
            {
              "internalType": "string",
              "name": "message",
              "type": "string"
            },
            {
              "internalType": "uint256",
              "name": "creationTime",
              "type": "uint256"
            }
          ],
          "internalType": "struct RedEnvelope.Envelopes[]",
          "name": "",
          "type": "tuple[]"
        }
      ],
      "stateMutability": "view",
      "type": "function",
      "constant": true
    },
    {
      "inputs": [
        {
          "internalType": "address",
          "name": "_receiverAddress",
          "type": "address"
        }
      ],
      "name": "getReceiverEnvelopes",
      "outputs": [
        {
          "components": [
            {
              "internalType": "address",
              "name": "creator",
              "type": "address"
            },
            {
              "internalType": "uint256",
              "name": "tokenAmount",
              "type": "uint256"
            },
            {
              "internalType": "uint256",
              "name": "participantsLimit",
              "type": "uint256"
            },
            {
              "internalType": "address[]",
              "name": "participants",
              "type": "address[]"
            },
            {
              "internalType": "uint256[]",
              "name": "participantsPrize",
              "type": "uint256[]"
            },
            {
              "internalType": "string",
              "name": "message",
              "type": "string"
            },
            {
              "internalType": "uint256",
              "name": "creationTime",
              "type": "uint256"
            }
          ],
          "internalType": "struct RedEnvelope.Envelopes[]",
          "name": "",
          "type": "tuple[]"
        }
      ],
      "stateMutability": "view",
      "type": "function",
      "constant": true
    }
  ],
  "bytecode": "0x608060405234801561001057600080fd5b50611e25806100206000396000f3fe60806040526004361061004a5760003560e01c80635587df321461004f57806372ff6a5b146100785780638bec0531146100b5578063c63ff8dd146100e5578063ea4a03ff1461010e575b600080fd5b34801561005b57600080fd5b506100766004803603810190610071919061117d565b61014b565b005b34801561008457600080fd5b5061009f600480360381019061009a9190611224565b610391565b6040516100ac91906115cb565b60405180910390f35b6100cf60048036038101906100ca91906116ba565b610662565b6040516100dc919061177e565b60405180910390f35b3480156100f157600080fd5b5061010c6004803603810190610107919061117d565b61088a565b005b34801561011a57600080fd5b5061013560048036038101906101309190611224565b610b89565b60405161014291906115cb565b60405180910390f35b6000808260405161015c91906117dc565b90815260200160405180910390209050426201518082600601546101809190611822565b10156101c1576040517f08c379a00000000000000000000000000000000000000000000000000000000081526004016101b8906118d5565b60405180910390fd5b6000816001015414610208576040517f08c379a00000000000000000000000000000000000000000000000000000000081526004016101ff90611941565b60405180910390fd5b3373ffffffffffffffffffffffffffffffffffffffff168160000160009054906101000a900473ffffffffffffffffffffffffffffffffffffffff1673ffffffffffffffffffffffffffffffffffffffff161461029a576040517f08c379a0000000000000000000000000000000000000000000000000000000008152600401610291906119ad565b60405180910390fd5b6000816001018190555060003373ffffffffffffffffffffffffffffffffffffffff1682600101546040516102ce906119f3565b60006040518083038185875af1925050503d806000811461030b576040519150601f19603f3d011682016040523d82523d6000602084013e610310565b606091505b5050905080610354576040517f08c379a000000000000000000000000000000000000000000000000000000000815260040161034b90611a54565b60405180910390fd5b7ff20fa2c3ffcf196667bdf2bca7a88a69d22300769a98c86ee91ca7c6cd53be6a60016040516103849190611a8f565b60405180910390a1505050565b60606000600260008473ffffffffffffffffffffffffffffffffffffffff1673ffffffffffffffffffffffffffffffffffffffff168152602001908152602001600020805480602002602001604051908101604052809291908181526020016000905b828210156104a057838290600052602060002001805461041390611ad9565b80601f016020809104026020016040519081016040528092919081815260200182805461043f90611ad9565b801561048c5780601f106104615761010080835404028352916020019161048c565b820191906000526020600020905b81548152906001019060200180831161046f57829003601f168201915b5050505050815260200190600101906103f4565b5050505090506000815167ffffffffffffffff8111156104c3576104c2611052565b5b6040519080825280602002602001820160405280156104fc57816020015b6104e9610ea7565b8152602001906001900390816104e15790505b50905060005b8251811015610657576040518060e0016040528083838151811061052957610528611b0b565b5b60200260200101516000015173ffffffffffffffffffffffffffffffffffffffff16815260200183838151811061056357610562611b0b565b5b602002602001015160200151815260200183838151811061058757610586611b0b565b5b60200260200101516040015181526020018383815181106105ab576105aa611b0b565b5b60200260200101516060015181526020018383815181106105cf576105ce611b0b565b5b60200260200101516080015181526020018383815181106105f3576105f2611b0b565b5b602002602001015160a00151815260200183838151811061061757610616611b0b565b5b602002602001015160c0015181525082828151811061063957610638611b0b565b5b6020026020010181905250808061064f90611b3a565b915050610502565b508092505050919050565b60608334146106a6576040517f08c379a000000000000000000000000000000000000000000000000000000000815260040161069d90611bcf565b60405180910390fd5b33426040516020016106b9929190611c0d565b6040516020818303038152906040529050336000826040516106db91906117dc565b908152602001604051809103902060000160006101000a81548173ffffffffffffffffffffffffffffffffffffffff021916908373ffffffffffffffffffffffffffffffffffffffff1602179055508360008260405161073b91906117dc565b9081526020016040518091039020600101819055508260008260405161076191906117dc565b9081526020016040518091039020600201819055508160008260405161078791906117dc565b908152602001604051809103902060050190805190602001906107ab929190610efa565b50426000826040516107bd91906117dc565b908152602001604051809103902060060181905550600260003373ffffffffffffffffffffffffffffffffffffffff1673ffffffffffffffffffffffffffffffffffffffff1681526020019081526020016000208190806001815401808255809150506001900390600052602060002001600090919091909150908051906020019061084a929190610f80565b507f0daaff4f37fb4ac895c5d82dd828ec31aa15c9e7706f6bae36010fa6a5443f81600160405161087b9190611a8f565b60405180910390a19392505050565b6000808260405161089b91906117dc565b90815260200160405180910390209050600081600301805490509050808260020154116108fd576040517f08c379a00000000000000000000000000000000000000000000000000000000081526004016108f490611c82565b60405180910390fd5b6000826001015411610944576040517f08c379a000000000000000000000000000000000000000000000000000000000815260040161093b90611cee565b60405180910390fd5b33826003016001836109569190611822565b8154811061096757610966611b0b565b5b9060005260206000200160006101000a81548173ffffffffffffffffffffffffffffffffffffffff021916908373ffffffffffffffffffffffffffffffffffffffff1602179055506000818360020154146109d1576109ca828460010154610e5a565b90506109d9565b826001015490505b808360010160008282546109ed9190611d0e565b9250508190555060003373ffffffffffffffffffffffffffffffffffffffff1682604051610a1a906119f3565b60006040518083038185875af1925050503d8060008114610a57576040519150601f19603f3d011682016040523d82523d6000602084013e610a5c565b606091505b5050905080610aa0576040517f08c379a0000000000000000000000000000000000000000000000000000000008152600401610a9790611a54565b60405180910390fd5b600160003373ffffffffffffffffffffffffffffffffffffffff1673ffffffffffffffffffffffffffffffffffffffff16815260200190815260200160002085908060018154018082558091505060019003906000526020600020016000909190919091509080519060200190610b18929190610f80565b508184600401600185610b2b9190611822565b81548110610b3c57610b3b611b0b565b5b90600052602060002001819055507f5e540da4d7c1b62cc394357318d97c58afa8d4121adf901800766bec5c6c037a6001604051610b7a9190611a8f565b60405180910390a15050505050565b60606000600160008473ffffffffffffffffffffffffffffffffffffffff1673ffffffffffffffffffffffffffffffffffffffff168152602001908152602001600020805480602002602001604051908101604052809291908181526020016000905b82821015610c98578382906000526020600020018054610c0b90611ad9565b80601f0160208091040260200160405190810160405280929190818152602001828054610c3790611ad9565b8015610c845780601f10610c5957610100808354040283529160200191610c84565b820191906000526020600020905b815481529060010190602001808311610c6757829003601f168201915b505050505081526020019060010190610bec565b5050505090506000815167ffffffffffffffff811115610cbb57610cba611052565b5b604051908082528060200260200182016040528015610cf457816020015b610ce1610ea7565b815260200190600190039081610cd95790505b50905060005b8251811015610e4f576040518060e00160405280838381518110610d2157610d20611b0b565b5b60200260200101516000015173ffffffffffffffffffffffffffffffffffffffff168152602001838381518110610d5b57610d5a611b0b565b5b6020026020010151602001518152602001838381518110610d7f57610d7e611b0b565b5b6020026020010151604001518152602001838381518110610da357610da2611b0b565b5b6020026020010151606001518152602001838381518110610dc757610dc6611b0b565b5b6020026020010151608001518152602001838381518110610deb57610dea611b0b565b5b602002602001015160a001518152602001838381518110610e0f57610e0e611b0b565b5b602002602001015160c00151815250828281518110610e3157610e30611b0b565b5b60200260200101819052508080610e4790611b3a565b915050610cfa565b508092505050919050565b60006001828442604051602001610e72929190611d63565b6040516020818303038152906040528051906020012060001c610e959190611dbe565b610e9f9190611822565b905092915050565b6040518060e00160405280600073ffffffffffffffffffffffffffffffffffffffff1681526020016000815260200160008152602001606081526020016060815260200160608152602001600081525090565b828054610f0690611ad9565b90600052602060002090601f016020900481019282610f285760008555610f6f565b82601f10610f4157805160ff1916838001178555610f6f565b82800160010185558215610f6f579182015b82811115610f6e578251825591602001919060010190610f53565b5b509050610f7c9190611006565b5090565b828054610f8c90611ad9565b90600052602060002090601f016020900481019282610fae5760008555610ff5565b82601f10610fc757805160ff1916838001178555610ff5565b82800160010185558215610ff5579182015b82811115610ff4578251825591602001919060010190610fd9565b5b5090506110029190611006565b5090565b5b8082111561101f576000816000905550600101611007565b5090565b6000604051905090565b600080fd5b600080fd5b600080fd5b600080fd5b6000601f19601f8301169050919050565b7f4e487b7100000000000000000000000000000000000000000000000000000000600052604160045260246000fd5b61108a82611041565b810181811067ffffffffffffffff821117156110a9576110a8611052565b5b80604052505050565b60006110bc611023565b90506110c88282611081565b919050565b600067ffffffffffffffff8211156110e8576110e7611052565b5b6110f182611041565b9050602081019050919050565b82818337600083830152505050565b600061112061111b846110cd565b6110b2565b90508281526020810184848401111561113c5761113b61103c565b5b6111478482856110fe565b509392505050565b600082601f83011261116457611163611037565b5b813561117484826020860161110d565b91505092915050565b6000602082840312156111935761119261102d565b5b600082013567ffffffffffffffff8111156111b1576111b0611032565b5b6111bd8482850161114f565b91505092915050565b600073ffffffffffffffffffffffffffffffffffffffff82169050919050565b60006111f1826111c6565b9050919050565b611201816111e6565b811461120c57600080fd5b50565b60008135905061121e816111f8565b92915050565b60006020828403121561123a5761123961102d565b5b60006112488482850161120f565b91505092915050565b600081519050919050565b600082825260208201905092915050565b6000819050602082019050919050565b611286816111e6565b82525050565b6000819050919050565b61129f8161128c565b82525050565b600081519050919050565b600082825260208201905092915050565b6000819050602082019050919050565b60006112dd838361127d565b60208301905092915050565b6000602082019050919050565b6000611301826112a5565b61130b81856112b0565b9350611316836112c1565b8060005b8381101561134757815161132e88826112d1565b9750611339836112e9565b92505060018101905061131a565b5085935050505092915050565b600081519050919050565b600082825260208201905092915050565b6000819050602082019050919050565b600061138c8383611296565b60208301905092915050565b6000602082019050919050565b60006113b082611354565b6113ba818561135f565b93506113c583611370565b8060005b838110156113f65781516113dd8882611380565b97506113e883611398565b9250506001810190506113c9565b5085935050505092915050565b600081519050919050565b600082825260208201905092915050565b60005b8381101561143d578082015181840152602081019050611422565b8381111561144c576000848401525b50505050565b600061145d82611403565b611467818561140e565b935061147781856020860161141f565b61148081611041565b840191505092915050565b600060e0830160008301516114a3600086018261127d565b5060208301516114b66020860182611296565b5060408301516114c96040860182611296565b50606083015184820360608601526114e182826112f6565b915050608083015184820360808601526114fb82826113a5565b91505060a083015184820360a08601526115158282611452565b91505060c083015161152a60c0860182611296565b508091505092915050565b6000611541838361148b565b905092915050565b6000602082019050919050565b600061156182611251565b61156b818561125c565b93508360208202850161157d8561126d565b8060005b858110156115b9578484038952815161159a8582611535565b94506115a583611549565b925060208a01995050600181019050611581565b50829750879550505050505092915050565b600060208201905081810360008301526115e58184611556565b905092915050565b6115f68161128c565b811461160157600080fd5b50565b600081359050611613816115ed565b92915050565b600067ffffffffffffffff82111561163457611633611052565b5b61163d82611041565b9050602081019050919050565b600061165d61165884611619565b6110b2565b9050828152602081018484840111156116795761167861103c565b5b6116848482856110fe565b509392505050565b600082601f8301126116a1576116a0611037565b5b81356116b184826020860161164a565b91505092915050565b6000806000606084860312156116d3576116d261102d565b5b60006116e186828701611604565b93505060206116f286828701611604565b925050604084013567ffffffffffffffff81111561171357611712611032565b5b61171f8682870161168c565b9150509250925092565b600081519050919050565b600082825260208201905092915050565b600061175082611729565b61175a8185611734565b935061176a81856020860161141f565b61177381611041565b840191505092915050565b600060208201905081810360008301526117988184611745565b905092915050565b600081905092915050565b60006117b682611729565b6117c081856117a0565b93506117d081856020860161141f565b80840191505092915050565b60006117e882846117ab565b915081905092915050565b7f4e487b7100000000000000000000000000000000000000000000000000000000600052601160045260246000fd5b600061182d8261128c565b91506118388361128c565b9250827fffffffffffffffffffffffffffffffffffffffffffffffffffffffffffffffff0382111561186d5761186c6117f3565b5b828201905092915050565b600082825260208201905092915050565b7f546f6f20736f6f6e000000000000000000000000000000000000000000000000600082015250565b60006118bf600883611878565b91506118ca82611889565b602082019050919050565b600060208201905081810360008301526118ee816118b2565b9050919050565b7f456d70747920656e76656c6f7065000000000000000000000000000000000000600082015250565b600061192b600e83611878565b9150611936826118f5565b602082019050919050565b6000602082019050818103600083015261195a8161191e565b9050919050565b7f4e6f742063726561746f72000000000000000000000000000000000000000000600082015250565b6000611997600b83611878565b91506119a282611961565b602082019050919050565b600060208201905081810360008301526119c68161198a565b9050919050565b50565b60006119dd6000836117a0565b91506119e8826119cd565b600082019050919050565b60006119fe826119d0565b9150819050919050565b7f4661696c656420746f2073656e64204574686572000000000000000000000000600082015250565b6000611a3e601483611878565b9150611a4982611a08565b602082019050919050565b60006020820190508181036000830152611a6d81611a31565b9050919050565b60008115159050919050565b611a8981611a74565b82525050565b6000602082019050611aa46000830184611a80565b92915050565b7f4e487b7100000000000000000000000000000000000000000000000000000000600052602260045260246000fd5b60006002820490506001821680611af157607f821691505b60208210811415611b0557611b04611aaa565b5b50919050565b7f4e487b7100000000000000000000000000000000000000000000000000000000600052603260045260246000fd5b6000611b458261128c565b91507fffffffffffffffffffffffffffffffffffffffffffffffffffffffffffffffff821415611b7857611b776117f3565b5b600182019050919050565b7f496e73756666696369656e742066756e64730000000000000000000000000000600082015250565b6000611bb9601283611878565b9150611bc482611b83565b602082019050919050565b60006020820190508181036000830152611be881611bac565b9050919050565b611bf8816111e6565b82525050565b611c078161128c565b82525050565b6000604082019050611c226000830185611bef565b611c2f6020830184611bfe565b9392505050565b7f6d6178207061727469636970616e747320657863656564656400000000000000600082015250565b6000611c6c601983611878565b9150611c7782611c36565b602082019050919050565b60006020820190508181036000830152611c9b81611c5f565b9050919050565b7f746f6b656e7320616c7265616479206469737472696275746564000000000000600082015250565b6000611cd8601a83611878565b9150611ce382611ca2565b602082019050919050565b60006020820190508181036000830152611d0781611ccb565b9050919050565b6000611d198261128c565b9150611d248361128c565b925082821015611d3757611d366117f3565b5b828203905092915050565b6000819050919050565b611d5d611d588261128c565b611d42565b82525050565b6000611d6f8285611d4c565b602082019150611d7f8284611d4c565b6020820191508190509392505050565b7f4e487b7100000000000000000000000000000000000000000000000000000000600052601260045260246000fd5b6000611dc98261128c565b9150611dd48361128c565b925082611de457611de3611d8f565b5b82820690509291505056fea26469706673582212201c60cb1b091231eee4da155cfd52ade8f4c526ef25bf737c0f93716c1241c22464736f6c63430008090033",
  "immutableReferences": {},
  "source": "// SPDX-License-Identifier: MIT\npragma solidity ^0.8.0;\n\ncontract RedEnvelope {\n  struct Envelopes{\n    address creator;\n    uint tokenAmount;\n    uint participantsLimit;\n    address[] participants;\n    uint[] participantsPrize;\n    string message;\n    uint creationTime;\n  }\n  mapping(bytes => Envelopes) envelope;\n  mapping(address => bytes []) receiverToEnvelope;\n  mapping(address => bytes []) creatorToEnvelope;\n\n  event EnvelopCreated(bool created);\n  event Claimed(bool claimed);\n  event CreatorWithdrawn(bool withdrawn);\n\tconstructor () \n\t{\n\t}\n\n\t/********************************************************\n\t*                                                       *\n\t*                     MAIN FUNCTIONS                    *\n\t*                                                       *\n\t********************************************************/\n\n  /// @notice create an envelope and share money with your people\n  /// @param _tokenAmount amount of weis to share\n  /// @param _message welcome message of the envelope\n  /// @dev creates envelope and stores crypto in this contract to later on distribute with participants\n\tfunction createEnvelope(uint _tokenAmount, uint _participantsLimit, string memory _message) external payable returns(bytes memory _envelopeId) {\n    require(msg.value == _tokenAmount, \"Insufficient funds\");\n    _envelopeId =  abi.encode(msg.sender, block.timestamp);\n    envelope[_envelopeId].creator = msg.sender;\n    envelope[_envelopeId].tokenAmount = _tokenAmount;\n    envelope[_envelopeId].participantsLimit = _participantsLimit;\n    envelope[_envelopeId].message = _message;\n    envelope[_envelopeId].creationTime = block.timestamp;\n    creatorToEnvelope[msg.sender].push(_envelopeId);\n    emit EnvelopCreated(true);\n\t}\n\n  /// @notice Open envelope before others and get crypto gift!\n  /// @param _envelopeId id of envelope in bytes256\n  /// @dev contract distributes crypto to msg.sender\n  function claim(bytes memory _envelopeId) external {\n    Envelopes storage _envelope = envelope[_envelopeId];\n    uint _currentParticipant = _envelope.participants.length;\n    require(_envelope.participantsLimit >  _currentParticipant, \"max participants exceeded\");\n    require(_envelope.tokenAmount > 0, \"tokens already distributed\");\n    _envelope.participants[_currentParticipant + 1] = msg.sender;\n    uint _amountToDeliver;\n    // If it is the last possible participant it shares the remaining crypto. Otherwise it shares a random amount of crypto\n    if(_envelope.participantsLimit != _currentParticipant) {\n      _amountToDeliver = _getAmountToDeliver(_currentParticipant, _envelope.tokenAmount);\n    } else {\n      _amountToDeliver = _envelope.tokenAmount;\n    }\n    _envelope.tokenAmount -= _amountToDeliver;\n    (bool sent, ) = payable(msg.sender).call{value: _amountToDeliver}(\"\");\n    require(sent, \"Failed to send Ether\");\n    receiverToEnvelope[msg.sender].push(_envelopeId);\n    _envelope.participantsPrize[_currentParticipant + 1] = _amountToDeliver;\n    emit Claimed(true);\n  }\n\n  /// @notice Claim your crypto locked in contract\n  /// @param _envelopeId id of envelope in bytes256\n  /** @dev In case it's been more than 24 hours and participants have not claimed all possible crypto,\n           the envelope creator can claim crypto locked in this contract**/\n  function creatorWithdraw(bytes memory _envelopeId) external {\n    Envelopes storage _envelope = envelope[_envelopeId];\n    require(_envelope.creationTime + 86400 >= block.timestamp, \"Too soon\");\n    require(_envelope.tokenAmount == 0, \"Empty envelope\");\n    require(_envelope.creator == msg.sender, \"Not creator\");\n    _envelope.tokenAmount = 0;\n    (bool sent, ) = payable(msg.sender).call{value: _envelope.tokenAmount}(\"\");\n    require(sent, \"Failed to send Ether\");\n    emit  CreatorWithdrawn(true);\n  }\n\n\t/********************************************************\n  *                                                       *\n  *                INTERNAL FUNCTIONS                     *\n  *                                                       *\n  ********************************************************/\n\n  /// @dev used in claim function\n  /// @param _participantsCounter current number of participants for the envelope\n  /// @param _tokenAmount amount of crypto left in the envelope\n  /// @return _amountToDeliver amount of crypto to be deliver to claimer. It is random number between 1 and _tokenAmount\n  function _getAmountToDeliver(uint _participantsCounter, uint _tokenAmount) internal view returns (uint _amountToDeliver) {\n    _amountToDeliver = (uint(keccak256(abi.encodePacked(_participantsCounter,block.timestamp))) % _tokenAmount) + 1;\n  }\n\n\t/********************************************************\n  *                                                       *\n  *                     GET FUNCTIONS                     *\n  *                                                       *\n  ********************************************************/\n\n  /// @dev used in front-end to display creator envelope data\n  /// @param _creatorAddress address of envelope creator\n  /// @return _envelopes All envelopes created by user\n  function getCreatorEnvelopes(address _creatorAddress) external view returns (Envelopes[] memory) {\n    bytes[] memory _creatorToEnvelope = creatorToEnvelope[_creatorAddress];\n    Envelopes[] memory _envelopes = new Envelopes[](_creatorToEnvelope.length);\n    for(uint i = 0; i < _creatorToEnvelope.length; i++) {\n      _envelopes[i] = Envelopes(\n        _envelopes[i].creator,\n        _envelopes[i].tokenAmount,\n        _envelopes[i].participantsLimit,\n        _envelopes[i].participants,\n        _envelopes[i].participantsPrize,\n        _envelopes[i].message,\n        _envelopes[i].creationTime\n      );\n    }\n    return _envelopes;\n  }\n\n  /// @dev used in front-end to display receiver envelope data\n  /// @param _receiverAddress address of envelope creator\n  /// @return _envelopes All envelopes a user has opened\n  function getReceiverEnvelopes(address _receiverAddress) external view returns (Envelopes[] memory) {\n    bytes[] memory _receiverToEnvelope = receiverToEnvelope[_receiverAddress];\n    Envelopes[] memory _envelopes = new Envelopes[](_receiverToEnvelope.length);\n    for(uint i = 0; i < _receiverToEnvelope.length; i++) {\n      _envelopes[i] = Envelopes(\n        _envelopes[i].creator,\n        _envelopes[i].tokenAmount,\n        _envelopes[i].participantsLimit,\n        _envelopes[i].participants,\n        _envelopes[i].participantsPrize,\n        _envelopes[i].message,\n        _envelopes[i].creationTime\n      );\n    }\n    return _envelopes;\n  }\n}",
  "sourcePath": "/Users/juanda/GitProjects/Crypto-red-pocket-full/src/contracts/RedEnvelope.sol",
  "compiler": {
    "name": "solc",
    "version": "0.8.9+commit.e5eed63a.Emscripten.clang"
  },
  "schemaVersion": "3.4.7",
  "updatedAt": "2022-07-27T15:14:16.095Z",
  "networkType": "ethereum",
  "devdoc": {
    "kind": "dev",
    "methods": {
      "claim(bytes)": {
        "details": "contract distributes crypto to msg.sender",
        "params": {
          "_envelopeId": "id of envelope in bytes256"
        }
      },
      "createEnvelope(uint256,uint256,string)": {
        "details": "creates envelope and stores crypto in this contract to later on distribute with participants",
        "params": {
          "_message": "welcome message of the envelope",
          "_tokenAmount": "amount of weis to share"
        }
      },
      "creatorWithdraw(bytes)": {
        "details": "In case it's been more than 24 hours and participants have not claimed all possible crypto, the envelope creator can claim crypto locked in this contract*"
      },
      "getCreatorEnvelopes(address)": {
        "details": "used in front-end to display creator envelope data",
        "params": {
          "_creatorAddress": "address of envelope creator"
        },
        "returns": {
          "_0": "_envelopes All envelopes created by user"
        }
      },
      "getReceiverEnvelopes(address)": {
        "details": "used in front-end to display receiver envelope data",
        "params": {
          "_receiverAddress": "address of envelope creator"
        },
        "returns": {
          "_0": "_envelopes All envelopes a user has opened"
        }
      }
    },
    "version": 1
  },
  "userdoc": {
    "kind": "user",
    "methods": {
      "claim(bytes)": {
        "notice": "Open envelope before others and get crypto gift!"
      },
      "createEnvelope(uint256,uint256,string)": {
        "notice": "create an envelope and share money with your people"
      }
    },
    "version": 1
  }
}