{
  "contractName": "RedEnvelope",
  "abi": [
    {
      "inputs": [],
      "stateMutability": "nonpayable",
      "type": "constructor"
    },
    {
      "anonymous": false,
      "inputs": [
        {
          "indexed": false,
          "internalType": "bool",
          "name": "claimed",
          "type": "bool"
        }
      ],
      "name": "Claimed",
      "type": "event"
    },
    {
      "anonymous": false,
      "inputs": [
        {
          "indexed": false,
          "internalType": "bool",
          "name": "withdrawn",
          "type": "bool"
        }
      ],
      "name": "CreatorWithdrawn",
      "type": "event"
    },
    {
      "anonymous": false,
      "inputs": [
        {
          "indexed": false,
          "internalType": "bool",
          "name": "created",
          "type": "bool"
        }
      ],
      "name": "EnvelopCreated",
      "type": "event"
    },
    {
      "inputs": [
        {
          "internalType": "uint256",
          "name": "_tokenAmount",
          "type": "uint256"
        },
        {
          "internalType": "uint256",
          "name": "_participantsLimit",
          "type": "uint256"
        },
        {
          "internalType": "string",
          "name": "_message",
          "type": "string"
        }
      ],
      "name": "createEnvelope",
      "outputs": [],
      "stateMutability": "payable",
      "type": "function",
      "payable": true
    },
    {
      "inputs": [
        {
          "internalType": "bytes",
          "name": "_envelopeId",
          "type": "bytes"
        }
      ],
      "name": "claim",
      "outputs": [],
      "stateMutability": "nonpayable",
      "type": "function"
    },
    {
      "inputs": [
        {
          "internalType": "bytes",
          "name": "_envelopeId",
          "type": "bytes"
        }
      ],
      "name": "creatorWithdraw",
      "outputs": [],
      "stateMutability": "nonpayable",
      "type": "function"
    },
    {
      "inputs": [
        {
          "internalType": "address",
          "name": "_creatorAddress",
          "type": "address"
        }
      ],
      "name": "getCreatorEnvelopes",
      "outputs": [
        {
          "components": [
            {
              "internalType": "address",
              "name": "creator",
              "type": "address"
            },
            {
              "internalType": "uint256",
              "name": "tokenAmount",
              "type": "uint256"
            },
            {
              "internalType": "uint256",
              "name": "participantsLimit",
              "type": "uint256"
            },
            {
              "internalType": "address[]",
              "name": "participants",
              "type": "address[]"
            },
            {
              "internalType": "uint256[]",
              "name": "participantsPrize",
              "type": "uint256[]"
            },
            {
              "internalType": "string",
              "name": "message",
              "type": "string"
            },
            {
              "internalType": "uint256",
              "name": "creationTime",
              "type": "uint256"
            }
          ],
          "internalType": "struct RedEnvelope.Envelopes[]",
          "name": "",
          "type": "tuple[]"
        }
      ],
      "stateMutability": "view",
      "type": "function",
      "constant": true
    },
    {
      "inputs": [
        {
          "internalType": "address",
          "name": "_receiverAddress",
          "type": "address"
        }
      ],
      "name": "getReceiverEnvelopes",
      "outputs": [
        {
          "components": [
            {
              "internalType": "address",
              "name": "creator",
              "type": "address"
            },
            {
              "internalType": "uint256",
              "name": "tokenAmount",
              "type": "uint256"
            },
            {
              "internalType": "uint256",
              "name": "participantsLimit",
              "type": "uint256"
            },
            {
              "internalType": "address[]",
              "name": "participants",
              "type": "address[]"
            },
            {
              "internalType": "uint256[]",
              "name": "participantsPrize",
              "type": "uint256[]"
            },
            {
              "internalType": "string",
              "name": "message",
              "type": "string"
            },
            {
              "internalType": "uint256",
              "name": "creationTime",
              "type": "uint256"
            }
          ],
          "internalType": "struct RedEnvelope.Envelopes[]",
          "name": "",
          "type": "tuple[]"
        }
      ],
      "stateMutability": "view",
      "type": "function",
      "constant": true
    }
  ],
  "bytecode": "0x608060405234801561001057600080fd5b5061200f806100206000396000f3fe60806040526004361061004a5760003560e01c80635587df321461004f57806372ff6a5b146100785780638bec0531146100b5578063c63ff8dd146100d1578063ea4a03ff146100fa575b600080fd5b34801561005b57600080fd5b506100766004803603810190610071919061102a565b610137565b005b34801561008457600080fd5b5061009f600480360381019061009a91906110d1565b61037d565b6040516100ac9190611478565b60405180910390f35b6100cf60048036038101906100ca9190611567565b61064e565b005b3480156100dd57600080fd5b506100f860048036038101906100f3919061102a565b610867565b005b34801561010657600080fd5b50610121600480360381019061011c91906110d1565b610b5f565b60405161012e9190611478565b60405180910390f35b60008082604051610148919061161d565b908152602001604051809103902090504262015180826006015461016c9190611663565b10156101ad576040517f08c379a00000000000000000000000000000000000000000000000000000000081526004016101a490611716565b60405180910390fd5b60008160010154146101f4576040517f08c379a00000000000000000000000000000000000000000000000000000000081526004016101eb90611782565b60405180910390fd5b3373ffffffffffffffffffffffffffffffffffffffff168160000160009054906101000a900473ffffffffffffffffffffffffffffffffffffffff1673ffffffffffffffffffffffffffffffffffffffff1614610286576040517f08c379a000000000000000000000000000000000000000000000000000000000815260040161027d906117ee565b60405180910390fd5b6000816001018190555060003373ffffffffffffffffffffffffffffffffffffffff1682600101546040516102ba90611834565b60006040518083038185875af1925050503d80600081146102f7576040519150601f19603f3d011682016040523d82523d6000602084013e6102fc565b606091505b5050905080610340576040517f08c379a000000000000000000000000000000000000000000000000000000000815260040161033790611895565b60405180910390fd5b7ff20fa2c3ffcf196667bdf2bca7a88a69d22300769a98c86ee91ca7c6cd53be6a600160405161037091906118d0565b60405180910390a1505050565b60606000600260008473ffffffffffffffffffffffffffffffffffffffff1673ffffffffffffffffffffffffffffffffffffffff168152602001908152602001600020805480602002602001604051908101604052809291908181526020016000905b8282101561048c5783829060005260206000200180546103ff9061191a565b80601f016020809104026020016040519081016040528092919081815260200182805461042b9061191a565b80156104785780601f1061044d57610100808354040283529160200191610478565b820191906000526020600020905b81548152906001019060200180831161045b57829003601f168201915b5050505050815260200190600101906103e0565b5050505090506000815167ffffffffffffffff8111156104af576104ae610eff565b5b6040519080825280602002602001820160405280156104e857816020015b6104d5610e7d565b8152602001906001900390816104cd5790505b50905060005b8251811015610643576040518060e001604052808383815181106105155761051461194b565b5b60200260200101516000015173ffffffffffffffffffffffffffffffffffffffff16815260200183838151811061054f5761054e61194b565b5b60200260200101516020015181526020018383815181106105735761057261194b565b5b60200260200101516040015181526020018383815181106105975761059661194b565b5b60200260200101516060015181526020018383815181106105bb576105ba61194b565b5b60200260200101516080015181526020018383815181106105df576105de61194b565b5b602002602001015160a0015181526020018383815181106106035761060261194b565b5b602002602001015160c001518152508282815181106106255761062461194b565b5b6020026020010181905250808061063b9061197a565b9150506104ee565b508092505050919050565b823414610690576040517f08c379a000000000000000000000000000000000000000000000000000000000815260040161068790611a0e565b60405180910390fd5b600033426040516020016106a5929190611a4c565b6040516020818303038152906040529050336000826040516106c7919061161d565b908152602001604051809103902060000160006101000a81548173ffffffffffffffffffffffffffffffffffffffff021916908373ffffffffffffffffffffffffffffffffffffffff16021790555083600082604051610727919061161d565b9081526020016040518091039020600101819055508260008260405161074d919061161d565b90815260200160405180910390206002018190555081600082604051610773919061161d565b908152602001604051809103902060050190816107909190611c21565b50426000826040516107a2919061161d565b908152602001604051809103902060060181905550600260003373ffffffffffffffffffffffffffffffffffffffff1673ffffffffffffffffffffffffffffffffffffffff168152602001908152602001600020819080600181540180825580915050600190039060005260206000200160009091909190915090816108289190611d4e565b507f0daaff4f37fb4ac895c5d82dd828ec31aa15c9e7706f6bae36010fa6a5443f81600160405161085991906118d0565b60405180910390a150505050565b60008082604051610878919061161d565b90815260200160405180910390209050600081600301805490509050808260020154116108da576040517f08c379a00000000000000000000000000000000000000000000000000000000081526004016108d190611e6c565b60405180910390fd5b6000826001015411610921576040517f08c379a000000000000000000000000000000000000000000000000000000000815260040161091890611ed8565b60405180910390fd5b33826003016001836109339190611663565b815481106109445761094361194b565b5b9060005260206000200160006101000a81548173ffffffffffffffffffffffffffffffffffffffff021916908373ffffffffffffffffffffffffffffffffffffffff1602179055506000818360020154146109ae576109a7828460010154610e30565b90506109b6565b826001015490505b808360010160008282546109ca9190611ef8565b9250508190555060003373ffffffffffffffffffffffffffffffffffffffff16826040516109f790611834565b60006040518083038185875af1925050503d8060008114610a34576040519150601f19603f3d011682016040523d82523d6000602084013e610a39565b606091505b5050905080610a7d576040517f08c379a0000000000000000000000000000000000000000000000000000000008152600401610a7490611895565b60405180910390fd5b600160003373ffffffffffffffffffffffffffffffffffffffff1673ffffffffffffffffffffffffffffffffffffffff16815260200190815260200160002085908060018154018082558091505060019003906000526020600020016000909190919091509081610aee9190611d4e565b508184600401600185610b019190611663565b81548110610b1257610b1161194b565b5b90600052602060002001819055507f5e540da4d7c1b62cc394357318d97c58afa8d4121adf901800766bec5c6c037a6001604051610b5091906118d0565b60405180910390a15050505050565b60606000600160008473ffffffffffffffffffffffffffffffffffffffff1673ffffffffffffffffffffffffffffffffffffffff168152602001908152602001600020805480602002602001604051908101604052809291908181526020016000905b82821015610c6e578382906000526020600020018054610be19061191a565b80601f0160208091040260200160405190810160405280929190818152602001828054610c0d9061191a565b8015610c5a5780601f10610c2f57610100808354040283529160200191610c5a565b820191906000526020600020905b815481529060010190602001808311610c3d57829003601f168201915b505050505081526020019060010190610bc2565b5050505090506000815167ffffffffffffffff811115610c9157610c90610eff565b5b604051908082528060200260200182016040528015610cca57816020015b610cb7610e7d565b815260200190600190039081610caf5790505b50905060005b8251811015610e25576040518060e00160405280838381518110610cf757610cf661194b565b5b60200260200101516000015173ffffffffffffffffffffffffffffffffffffffff168152602001838381518110610d3157610d3061194b565b5b6020026020010151602001518152602001838381518110610d5557610d5461194b565b5b6020026020010151604001518152602001838381518110610d7957610d7861194b565b5b6020026020010151606001518152602001838381518110610d9d57610d9c61194b565b5b6020026020010151608001518152602001838381518110610dc157610dc061194b565b5b602002602001015160a001518152602001838381518110610de557610de461194b565b5b602002602001015160c00151815250828281518110610e0757610e0661194b565b5b60200260200101819052508080610e1d9061197a565b915050610cd0565b508092505050919050565b60006001828442604051602001610e48929190611f4d565b6040516020818303038152906040528051906020012060001c610e6b9190611fa8565b610e759190611663565b905092915050565b6040518060e00160405280600073ffffffffffffffffffffffffffffffffffffffff1681526020016000815260200160008152602001606081526020016060815260200160608152602001600081525090565b6000604051905090565b600080fd5b600080fd5b600080fd5b600080fd5b6000601f19601f8301169050919050565b7f4e487b7100000000000000000000000000000000000000000000000000000000600052604160045260246000fd5b610f3782610eee565b810181811067ffffffffffffffff82111715610f5657610f55610eff565b5b80604052505050565b6000610f69610ed0565b9050610f758282610f2e565b919050565b600067ffffffffffffffff821115610f9557610f94610eff565b5b610f9e82610eee565b9050602081019050919050565b82818337600083830152505050565b6000610fcd610fc884610f7a565b610f5f565b905082815260208101848484011115610fe957610fe8610ee9565b5b610ff4848285610fab565b509392505050565b600082601f83011261101157611010610ee4565b5b8135611021848260208601610fba565b91505092915050565b6000602082840312156110405761103f610eda565b5b600082013567ffffffffffffffff81111561105e5761105d610edf565b5b61106a84828501610ffc565b91505092915050565b600073ffffffffffffffffffffffffffffffffffffffff82169050919050565b600061109e82611073565b9050919050565b6110ae81611093565b81146110b957600080fd5b50565b6000813590506110cb816110a5565b92915050565b6000602082840312156110e7576110e6610eda565b5b60006110f5848285016110bc565b91505092915050565b600081519050919050565b600082825260208201905092915050565b6000819050602082019050919050565b61113381611093565b82525050565b6000819050919050565b61114c81611139565b82525050565b600081519050919050565b600082825260208201905092915050565b6000819050602082019050919050565b600061118a838361112a565b60208301905092915050565b6000602082019050919050565b60006111ae82611152565b6111b8818561115d565b93506111c38361116e565b8060005b838110156111f45781516111db888261117e565b97506111e683611196565b9250506001810190506111c7565b5085935050505092915050565b600081519050919050565b600082825260208201905092915050565b6000819050602082019050919050565b60006112398383611143565b60208301905092915050565b6000602082019050919050565b600061125d82611201565b611267818561120c565b93506112728361121d565b8060005b838110156112a357815161128a888261122d565b975061129583611245565b925050600181019050611276565b5085935050505092915050565b600081519050919050565b600082825260208201905092915050565b60005b838110156112ea5780820151818401526020810190506112cf565b838111156112f9576000848401525b50505050565b600061130a826112b0565b61131481856112bb565b93506113248185602086016112cc565b61132d81610eee565b840191505092915050565b600060e083016000830151611350600086018261112a565b5060208301516113636020860182611143565b5060408301516113766040860182611143565b506060830151848203606086015261138e82826111a3565b915050608083015184820360808601526113a88282611252565b91505060a083015184820360a08601526113c282826112ff565b91505060c08301516113d760c0860182611143565b508091505092915050565b60006113ee8383611338565b905092915050565b6000602082019050919050565b600061140e826110fe565b6114188185611109565b93508360208202850161142a8561111a565b8060005b85811015611466578484038952815161144785826113e2565b9450611452836113f6565b925060208a0199505060018101905061142e565b50829750879550505050505092915050565b600060208201905081810360008301526114928184611403565b905092915050565b6114a381611139565b81146114ae57600080fd5b50565b6000813590506114c08161149a565b92915050565b600067ffffffffffffffff8211156114e1576114e0610eff565b5b6114ea82610eee565b9050602081019050919050565b600061150a611505846114c6565b610f5f565b90508281526020810184848401111561152657611525610ee9565b5b611531848285610fab565b509392505050565b600082601f83011261154e5761154d610ee4565b5b813561155e8482602086016114f7565b91505092915050565b6000806000606084860312156115805761157f610eda565b5b600061158e868287016114b1565b935050602061159f868287016114b1565b925050604084013567ffffffffffffffff8111156115c0576115bf610edf565b5b6115cc86828701611539565b9150509250925092565b600081519050919050565b600081905092915050565b60006115f7826115d6565b61160181856115e1565b93506116118185602086016112cc565b80840191505092915050565b600061162982846115ec565b915081905092915050565b7f4e487b7100000000000000000000000000000000000000000000000000000000600052601160045260246000fd5b600061166e82611139565b915061167983611139565b9250827fffffffffffffffffffffffffffffffffffffffffffffffffffffffffffffffff038211156116ae576116ad611634565b5b828201905092915050565b600082825260208201905092915050565b7f546f6f20736f6f6e000000000000000000000000000000000000000000000000600082015250565b60006117006008836116b9565b915061170b826116ca565b602082019050919050565b6000602082019050818103600083015261172f816116f3565b9050919050565b7f456d70747920656e76656c6f7065000000000000000000000000000000000000600082015250565b600061176c600e836116b9565b915061177782611736565b602082019050919050565b6000602082019050818103600083015261179b8161175f565b9050919050565b7f4e6f742063726561746f72000000000000000000000000000000000000000000600082015250565b60006117d8600b836116b9565b91506117e3826117a2565b602082019050919050565b60006020820190508181036000830152611807816117cb565b9050919050565b50565b600061181e6000836115e1565b91506118298261180e565b600082019050919050565b600061183f82611811565b9150819050919050565b7f4661696c656420746f2073656e64204574686572000000000000000000000000600082015250565b600061187f6014836116b9565b915061188a82611849565b602082019050919050565b600060208201905081810360008301526118ae81611872565b9050919050565b60008115159050919050565b6118ca816118b5565b82525050565b60006020820190506118e560008301846118c1565b92915050565b7f4e487b7100000000000000000000000000000000000000000000000000000000600052602260045260246000fd5b6000600282049050600182168061193257607f821691505b602082108103611945576119446118eb565b5b50919050565b7f4e487b7100000000000000000000000000000000000000000000000000000000600052603260045260246000fd5b600061198582611139565b91507fffffffffffffffffffffffffffffffffffffffffffffffffffffffffffffffff82036119b7576119b6611634565b5b600182019050919050565b7f496e73756666696369656e742066756e64730000000000000000000000000000600082015250565b60006119f86012836116b9565b9150611a03826119c2565b602082019050919050565b60006020820190508181036000830152611a27816119eb565b9050919050565b611a3781611093565b82525050565b611a4681611139565b82525050565b6000604082019050611a616000830185611a2e565b611a6e6020830184611a3d565b9392505050565b60008190508160005260206000209050919050565b60006020601f8301049050919050565b600082821b905092915050565b600060088302611ad77fffffffffffffffffffffffffffffffffffffffffffffffffffffffffffffffff82611a9a565b611ae18683611a9a565b95508019841693508086168417925050509392505050565b6000819050919050565b6000611b1e611b19611b1484611139565b611af9565b611139565b9050919050565b6000819050919050565b611b3883611b03565b611b4c611b4482611b25565b848454611aa7565b825550505050565b600090565b611b61611b54565b611b6c818484611b2f565b505050565b5b81811015611b9057611b85600082611b59565b600181019050611b72565b5050565b601f821115611bd557611ba681611a75565b611baf84611a8a565b81016020851015611bbe578190505b611bd2611bca85611a8a565b830182611b71565b50505b505050565b600082821c905092915050565b6000611bf860001984600802611bda565b1980831691505092915050565b6000611c118383611be7565b9150826002028217905092915050565b611c2a826112b0565b67ffffffffffffffff811115611c4357611c42610eff565b5b611c4d825461191a565b611c58828285611b94565b600060209050601f831160018114611c8b5760008415611c79578287015190505b611c838582611c05565b865550611ceb565b601f198416611c9986611a75565b60005b82811015611cc157848901518255600182019150602085019450602081019050611c9c565b86831015611cde5784890151611cda601f891682611be7565b8355505b6001600288020188555050505b505050505050565b60008190508160005260206000209050919050565b601f821115611d4957611d1a81611cf3565b611d2384611a8a565b81016020851015611d32578190505b611d46611d3e85611a8a565b830182611b71565b50505b505050565b611d57826115d6565b67ffffffffffffffff811115611d7057611d6f610eff565b5b611d7a825461191a565b611d85828285611d08565b600060209050601f831160018114611db85760008415611da6578287015190505b611db08582611c05565b865550611e18565b601f198416611dc686611cf3565b60005b82811015611dee57848901518255600182019150602085019450602081019050611dc9565b86831015611e0b5784890151611e07601f891682611be7565b8355505b6001600288020188555050505b505050505050565b7f6d6178207061727469636970616e747320657863656564656400000000000000600082015250565b6000611e566019836116b9565b9150611e6182611e20565b602082019050919050565b60006020820190508181036000830152611e8581611e49565b9050919050565b7f746f6b656e7320616c7265616479206469737472696275746564000000000000600082015250565b6000611ec2601a836116b9565b9150611ecd82611e8c565b602082019050919050565b60006020820190508181036000830152611ef181611eb5565b9050919050565b6000611f0382611139565b9150611f0e83611139565b925082821015611f2157611f20611634565b5b828203905092915050565b6000819050919050565b611f47611f4282611139565b611f2c565b82525050565b6000611f598285611f36565b602082019150611f698284611f36565b6020820191508190509392505050565b7f4e487b7100000000000000000000000000000000000000000000000000000000600052601260045260246000fd5b6000611fb382611139565b9150611fbe83611139565b925082611fce57611fcd611f79565b5b82820690509291505056fea26469706673582212208e325b0f9fe2ed16e349ed37617bd4b43ef96208d43706f696221e71961aab8264736f6c634300080f0033",
  "immutableReferences": {},
  "source": "// SPDX-License-Identifier: MIT\npragma solidity ^0.8.0;\n\ncontract RedEnvelope {\n  struct Envelopes{\n    address creator;\n    uint tokenAmount;\n    uint participantsLimit;\n    address[] participants;\n    uint[] participantsPrize;\n    string message;\n    uint creationTime;\n  }\n  mapping(bytes => Envelopes) envelope;\n  mapping(address => bytes []) receiverToEnvelope;\n  mapping(address => bytes []) creatorToEnvelope;\n\n  event EnvelopCreated(bool created);\n  event Claimed(bool claimed);\n  event CreatorWithdrawn(bool withdrawn);\n\tconstructor () \n\t{\n\t}\n\n\t/********************************************************\n\t*                                                       *\n\t*                     MAIN FUNCTIONS                    *\n\t*                                                       *\n\t********************************************************/\n\n  /// @notice create an envelope and share money with your people\n  /// @param _tokenAmount amount of weis to share\n  /// @param _message welcome message of the envelope\n  /// @dev creates envelope and stores crypto in this contract to later on distribute with participants\n\tfunction createEnvelope(uint _tokenAmount, uint _participantsLimit, string memory _message) external payable {\n    require(msg.value == _tokenAmount, \"Insufficient funds\");\n    bytes memory _envelopeId =  abi.encode(msg.sender, block.timestamp);\n    envelope[_envelopeId].creator = msg.sender;\n    envelope[_envelopeId].tokenAmount = _tokenAmount;\n    envelope[_envelopeId].participantsLimit = _participantsLimit;\n    envelope[_envelopeId].message = _message;\n    envelope[_envelopeId].creationTime = block.timestamp;\n    creatorToEnvelope[msg.sender].push(_envelopeId);\n    emit EnvelopCreated(true);\n\t}\n\n  /// @notice Open envelope before others and get crypto gift!\n  /// @param _envelopeId id of envelope in bytes256\n  /// @dev contract distributes crypto to msg.sender\n  function claim(bytes memory _envelopeId) external {\n    Envelopes storage _envelope = envelope[_envelopeId];\n    uint _currentParticipant = _envelope.participants.length;\n    require(_envelope.participantsLimit >  _currentParticipant, \"max participants exceeded\");\n    require(_envelope.tokenAmount > 0, \"tokens already distributed\");\n    _envelope.participants[_currentParticipant + 1] = msg.sender;\n    uint _amountToDeliver;\n    // If it is the last possible participant it shares the remaining crypto. Otherwise it shares a random amount of crypto\n    if(_envelope.participantsLimit != _currentParticipant) {\n      _amountToDeliver = _getAmountToDeliver(_currentParticipant, _envelope.tokenAmount);\n    } else {\n      _amountToDeliver = _envelope.tokenAmount;\n    }\n    _envelope.tokenAmount -= _amountToDeliver;\n    (bool sent, ) = payable(msg.sender).call{value: _amountToDeliver}(\"\");\n    require(sent, \"Failed to send Ether\");\n    receiverToEnvelope[msg.sender].push(_envelopeId);\n    _envelope.participantsPrize[_currentParticipant + 1] = _amountToDeliver;\n    emit Claimed(true);\n  }\n\n  /// @notice Claim your crypto locked in contract\n  /// @param _envelopeId id of envelope in bytes256\n  /** @dev In case it's been more than 24 hours and participants have not claimed all possible crypto,\n           the envelope creator can claim crypto locked in this contract**/\n  function creatorWithdraw(bytes memory _envelopeId) external {\n    Envelopes storage _envelope = envelope[_envelopeId];\n    require(_envelope.creationTime + 86400 >= block.timestamp, \"Too soon\");\n    require(_envelope.tokenAmount == 0, \"Empty envelope\");\n    require(_envelope.creator == msg.sender, \"Not creator\");\n    _envelope.tokenAmount = 0;\n    (bool sent, ) = payable(msg.sender).call{value: _envelope.tokenAmount}(\"\");\n    require(sent, \"Failed to send Ether\");\n    emit  CreatorWithdrawn(true);\n  }\n\n\t/********************************************************\n  *                                                       *\n  *                INTERNAL FUNCTIONS                     *\n  *                                                       *\n  ********************************************************/\n\n  /// @dev used in claim function\n  /// @param _participantsCounter current number of participants for the envelope\n  /// @param _tokenAmount amount of crypto left in the envelope\n  /// @return _amountToDeliver amount of crypto to be deliver to claimer. It is random number between 1 and _tokenAmount\n  function _getAmountToDeliver(uint _participantsCounter, uint _tokenAmount) internal view returns (uint _amountToDeliver) {\n    _amountToDeliver = (uint(keccak256(abi.encodePacked(_participantsCounter,block.timestamp))) % _tokenAmount) + 1;\n  }\n\n\t/********************************************************\n  *                                                       *\n  *                     GET FUNCTIONS                     *\n  *                                                       *\n  ********************************************************/\n\n  /// @dev used in front-end to display creator envelope data\n  /// @param _creatorAddress address of envelope creator\n  /// @return _envelopes All envelopes created by user\n  function getCreatorEnvelopes(address _creatorAddress) external view returns (Envelopes[] memory) {\n    bytes[] memory _creatorToEnvelope = creatorToEnvelope[_creatorAddress];\n    Envelopes[] memory _envelopes = new Envelopes[](_creatorToEnvelope.length);\n    for(uint i = 0; i < _creatorToEnvelope.length; i++) {\n      _envelopes[i] = Envelopes(\n        _envelopes[i].creator,\n        _envelopes[i].tokenAmount,\n        _envelopes[i].participantsLimit,\n        _envelopes[i].participants,\n        _envelopes[i].participantsPrize,\n        _envelopes[i].message,\n        _envelopes[i].creationTime\n      );\n    }\n    return _envelopes;\n  }\n\n  /// @dev used in front-end to display receiver envelope data\n  /// @param _receiverAddress address of envelope creator\n  /// @return _envelopes All envelopes a user has opened\n  function getReceiverEnvelopes(address _receiverAddress) external view returns (Envelopes[] memory) {\n    bytes[] memory _receiverToEnvelope = receiverToEnvelope[_receiverAddress];\n    Envelopes[] memory _envelopes = new Envelopes[](_receiverToEnvelope.length);\n    for(uint i = 0; i < _receiverToEnvelope.length; i++) {\n      _envelopes[i] = Envelopes(\n        _envelopes[i].creator,\n        _envelopes[i].tokenAmount,\n        _envelopes[i].participantsLimit,\n        _envelopes[i].participants,\n        _envelopes[i].participantsPrize,\n        _envelopes[i].message,\n        _envelopes[i].creationTime\n      );\n    }\n    return _envelopes;\n  }\n}",
  "sourcePath": "/Users/juanda/GitProjects/Crypto-red-pocket-full/src/contracts/RedEnvelope.sol",
  "compiler": {
    "name": "solc",
    "version": "0.8.15+commit.e14f2714.Emscripten.clang"
  },
  "schemaVersion": "3.4.7",
  "updatedAt": "2022-07-27T13:28:50.869Z",
  "networkType": "ethereum",
  "devdoc": {
    "kind": "dev",
    "methods": {
      "claim(bytes)": {
        "details": "contract distributes crypto to msg.sender",
        "params": {
          "_envelopeId": "id of envelope in bytes256"
        }
      },
      "createEnvelope(uint256,uint256,string)": {
        "details": "creates envelope and stores crypto in this contract to later on distribute with participants",
        "params": {
          "_message": "welcome message of the envelope",
          "_tokenAmount": "amount of weis to share"
        }
      },
      "creatorWithdraw(bytes)": {
        "details": "In case it's been more than 24 hours and participants have not claimed all possible crypto, the envelope creator can claim crypto locked in this contract*"
      },
      "getCreatorEnvelopes(address)": {
        "details": "used in front-end to display creator envelope data",
        "params": {
          "_creatorAddress": "address of envelope creator"
        },
        "returns": {
          "_0": "_envelopes All envelopes created by user"
        }
      },
      "getReceiverEnvelopes(address)": {
        "details": "used in front-end to display receiver envelope data",
        "params": {
          "_receiverAddress": "address of envelope creator"
        },
        "returns": {
          "_0": "_envelopes All envelopes a user has opened"
        }
      }
    },
    "version": 1
  },
  "userdoc": {
    "kind": "user",
    "methods": {
      "claim(bytes)": {
        "notice": "Open envelope before others and get crypto gift!"
      },
      "createEnvelope(uint256,uint256,string)": {
        "notice": "create an envelope and share money with your people"
      }
    },
    "version": 1
  }
}