{
  "contractName": "RedEnvelope",
  "abi": [
    {
      "inputs": [],
      "stateMutability": "nonpayable",
      "type": "constructor"
    },
    {
      "anonymous": false,
      "inputs": [
        {
          "indexed": false,
          "internalType": "bool",
          "name": "claimed",
          "type": "bool"
        }
      ],
      "name": "Claimed",
      "type": "event"
    },
    {
      "anonymous": false,
      "inputs": [
        {
          "indexed": false,
          "internalType": "bool",
          "name": "withdrawn",
          "type": "bool"
        }
      ],
      "name": "CreatorWithdrawn",
      "type": "event"
    },
    {
      "anonymous": false,
      "inputs": [
        {
          "indexed": false,
          "internalType": "bytes",
          "name": "envelopeId",
          "type": "bytes"
        }
      ],
      "name": "EnvelopCreated",
      "type": "event"
    },
    {
      "inputs": [
        {
          "internalType": "address",
          "name": "",
          "type": "address"
        },
        {
          "internalType": "uint256",
          "name": "",
          "type": "uint256"
        }
      ],
      "name": "creatorToEnvelope",
      "outputs": [
        {
          "internalType": "bytes",
          "name": "",
          "type": "bytes"
        }
      ],
      "stateMutability": "view",
      "type": "function",
      "constant": true
    },
    {
      "inputs": [
        {
          "internalType": "address",
          "name": "",
          "type": "address"
        },
        {
          "internalType": "uint256",
          "name": "",
          "type": "uint256"
        }
      ],
      "name": "receiverToEnvelope",
      "outputs": [
        {
          "internalType": "bytes",
          "name": "",
          "type": "bytes"
        }
      ],
      "stateMutability": "view",
      "type": "function",
      "constant": true
    },
    {
      "inputs": [
        {
          "internalType": "uint256",
          "name": "_participantsLimit",
          "type": "uint256"
        },
        {
          "internalType": "string",
          "name": "_message",
          "type": "string"
        }
      ],
      "name": "createEnvelope",
      "outputs": [
        {
          "internalType": "bytes",
          "name": "_envelopeId",
          "type": "bytes"
        }
      ],
      "stateMutability": "payable",
      "type": "function",
      "payable": true
    },
    {
      "inputs": [
        {
          "internalType": "bytes",
          "name": "_envelopeId",
          "type": "bytes"
        }
      ],
      "name": "claim",
      "outputs": [],
      "stateMutability": "nonpayable",
      "type": "function"
    },
    {
      "inputs": [
        {
          "internalType": "bytes",
          "name": "_envelopeId",
          "type": "bytes"
        }
      ],
      "name": "creatorWithdraw",
      "outputs": [],
      "stateMutability": "nonpayable",
      "type": "function"
    },
    {
      "inputs": [
        {
          "internalType": "bytes",
          "name": "_envelopeId",
          "type": "bytes"
        }
      ],
      "name": "getEnvelope",
      "outputs": [
        {
          "components": [
            {
              "internalType": "bytes",
              "name": "envelopeId",
              "type": "bytes"
            },
            {
              "internalType": "address",
              "name": "creator",
              "type": "address"
            },
            {
              "internalType": "uint256",
              "name": "totalTokenAmount",
              "type": "uint256"
            },
            {
              "internalType": "uint256",
              "name": "tokenAmount",
              "type": "uint256"
            },
            {
              "internalType": "uint256",
              "name": "participantsLimit",
              "type": "uint256"
            },
            {
              "internalType": "address[]",
              "name": "participants",
              "type": "address[]"
            },
            {
              "internalType": "uint256[]",
              "name": "participantsPrize",
              "type": "uint256[]"
            },
            {
              "internalType": "string",
              "name": "message",
              "type": "string"
            },
            {
              "internalType": "uint256",
              "name": "creationTime",
              "type": "uint256"
            }
          ],
          "internalType": "struct RedEnvelope.Envelopes",
          "name": "",
          "type": "tuple"
        }
      ],
      "stateMutability": "view",
      "type": "function",
      "constant": true
    },
    {
      "inputs": [
        {
          "internalType": "address",
          "name": "_creatorAddress",
          "type": "address"
        }
      ],
      "name": "getCreatorEnvelopes",
      "outputs": [
        {
          "components": [
            {
              "internalType": "bytes",
              "name": "envelopeId",
              "type": "bytes"
            },
            {
              "internalType": "address",
              "name": "creator",
              "type": "address"
            },
            {
              "internalType": "uint256",
              "name": "totalTokenAmount",
              "type": "uint256"
            },
            {
              "internalType": "uint256",
              "name": "tokenAmount",
              "type": "uint256"
            },
            {
              "internalType": "uint256",
              "name": "participantsLimit",
              "type": "uint256"
            },
            {
              "internalType": "address[]",
              "name": "participants",
              "type": "address[]"
            },
            {
              "internalType": "uint256[]",
              "name": "participantsPrize",
              "type": "uint256[]"
            },
            {
              "internalType": "string",
              "name": "message",
              "type": "string"
            },
            {
              "internalType": "uint256",
              "name": "creationTime",
              "type": "uint256"
            }
          ],
          "internalType": "struct RedEnvelope.Envelopes[]",
          "name": "",
          "type": "tuple[]"
        }
      ],
      "stateMutability": "view",
      "type": "function",
      "constant": true
    },
    {
      "inputs": [
        {
          "internalType": "address",
          "name": "_receiverAddress",
          "type": "address"
        }
      ],
      "name": "getReceiverEnvelopes",
      "outputs": [
        {
          "components": [
            {
              "internalType": "bytes",
              "name": "envelopeId",
              "type": "bytes"
            },
            {
              "internalType": "address",
              "name": "creator",
              "type": "address"
            },
            {
              "internalType": "uint256",
              "name": "totalTokenAmount",
              "type": "uint256"
            },
            {
              "internalType": "uint256",
              "name": "tokenAmount",
              "type": "uint256"
            },
            {
              "internalType": "uint256",
              "name": "participantsLimit",
              "type": "uint256"
            },
            {
              "internalType": "address[]",
              "name": "participants",
              "type": "address[]"
            },
            {
              "internalType": "uint256[]",
              "name": "participantsPrize",
              "type": "uint256[]"
            },
            {
              "internalType": "string",
              "name": "message",
              "type": "string"
            },
            {
              "internalType": "uint256",
              "name": "creationTime",
              "type": "uint256"
            }
          ],
          "internalType": "struct RedEnvelope.Envelopes[]",
          "name": "",
          "type": "tuple[]"
        }
      ],
      "stateMutability": "view",
      "type": "function",
      "constant": true
    }
  ],
  "bytecode": "0x608060405234801561001057600080fd5b506128af806100206000396000f3fe60806040526004361061007b5760003560e01c806372ff6a5b1161004e57806372ff6a5b14610160578063c63ff8dd1461019d578063e8cd1b45146101c6578063ea4a03ff146101f65761007b565b8063097362a7146100805780630f697db1146100bd5780631bb97917146100fa5780635587df3214610137575b600080fd5b34801561008c57600080fd5b506100a760048036038101906100a291906119b2565b610233565b6040516100b49190611a8b565b60405180910390f35b3480156100c957600080fd5b506100e460048036038101906100df9190611be2565b6102ec565b6040516100f19190611f20565b60405180910390f35b34801561010657600080fd5b50610121600480360381019061011c91906119b2565b6105ad565b60405161012e9190611a8b565b60405180910390f35b34801561014357600080fd5b5061015e60048036038101906101599190611be2565b610666565b005b34801561016c57600080fd5b5061018760048036038101906101829190611f42565b6108ac565b604051610194919061210b565b60405180910390f35b3480156101a957600080fd5b506101c460048036038101906101bf9190611be2565b610d2e565b005b6101e060048036038101906101db91906121ce565b61102d565b6040516101ed9190611a8b565b60405180910390f35b34801561020257600080fd5b5061021d60048036038101906102189190611f42565b6112b0565b60405161022a919061210b565b60405180910390f35b6001602052816000526040600020818154811061024f57600080fd5b9060005260206000200160009150915050805461026b90612259565b80601f016020809104026020016040519081016040528092919081815260200182805461029790612259565b80156102e45780601f106102b9576101008083540402835291602001916102e4565b820191906000526020600020905b8154815290600101906020018083116102c757829003601f168201915b505050505081565b6102f461177f565b60008260405161030491906122c7565b90815260200160405180910390206040518061012001604052908160008201805461032e90612259565b80601f016020809104026020016040519081016040528092919081815260200182805461035a90612259565b80156103a75780601f1061037c576101008083540402835291602001916103a7565b820191906000526020600020905b81548152906001019060200180831161038a57829003601f168201915b505050505081526020016001820160009054906101000a900473ffffffffffffffffffffffffffffffffffffffff1673ffffffffffffffffffffffffffffffffffffffff1673ffffffffffffffffffffffffffffffffffffffff168152602001600282015481526020016003820154815260200160048201548152602001600582018054806020026020016040519081016040528092919081815260200182805480156104a957602002820191906000526020600020905b8160009054906101000a900473ffffffffffffffffffffffffffffffffffffffff1673ffffffffffffffffffffffffffffffffffffffff168152602001906001019080831161045f575b505050505081526020016006820180548060200260200160405190810160405280929190818152602001828054801561050157602002820191906000526020600020905b8154815260200190600101908083116104ed575b5050505050815260200160078201805461051a90612259565b80601f016020809104026020016040519081016040528092919081815260200182805461054690612259565b80156105935780601f1061056857610100808354040283529160200191610593565b820191906000526020600020905b81548152906001019060200180831161057657829003601f168201915b505050505081526020016008820154815250509050919050565b600260205281600052604060002081815481106105c957600080fd5b906000526020600020016000915091505080546105e590612259565b80601f016020809104026020016040519081016040528092919081815260200182805461061190612259565b801561065e5780601f106106335761010080835404028352916020019161065e565b820191906000526020600020905b81548152906001019060200180831161064157829003601f168201915b505050505081565b6000808260405161067791906122c7565b908152602001604051809103902090504262015180826008015461069b919061230d565b10156106dc576040517f08c379a00000000000000000000000000000000000000000000000000000000081526004016106d3906123c0565b60405180910390fd5b6000816003015414610723576040517f08c379a000000000000000000000000000000000000000000000000000000000815260040161071a9061242c565b60405180910390fd5b3373ffffffffffffffffffffffffffffffffffffffff168160010160009054906101000a900473ffffffffffffffffffffffffffffffffffffffff1673ffffffffffffffffffffffffffffffffffffffff16146107b5576040517f08c379a00000000000000000000000000000000000000000000000000000000081526004016107ac90612498565b60405180910390fd5b6000816003018190555060003373ffffffffffffffffffffffffffffffffffffffff1682600301546040516107e9906124de565b60006040518083038185875af1925050503d8060008114610826576040519150601f19603f3d011682016040523d82523d6000602084013e61082b565b606091505b505090508061086f576040517f08c379a00000000000000000000000000000000000000000000000000000000081526004016108669061253f565b60405180910390fd5b7ff20fa2c3ffcf196667bdf2bca7a88a69d22300769a98c86ee91ca7c6cd53be6a600160405161089f919061257a565b60405180910390a1505050565b60606000600260008473ffffffffffffffffffffffffffffffffffffffff1673ffffffffffffffffffffffffffffffffffffffff168152602001908152602001600020805480602002602001604051908101604052809291908181526020016000905b828210156109bb57838290600052602060002001805461092e90612259565b80601f016020809104026020016040519081016040528092919081815260200182805461095a90612259565b80156109a75780601f1061097c576101008083540402835291602001916109a7565b820191906000526020600020905b81548152906001019060200180831161098a57829003601f168201915b50505050508152602001906001019061090f565b5050505090506000815167ffffffffffffffff8111156109de576109dd611ab7565b5b604051908082528060200260200182016040528015610a1757816020015b610a0461177f565b8152602001906001900390816109fc5790505b50905060005b8251811015610d23576000838281518110610a3b57610a3a612595565b5b6020026020010151604051610a5091906122c7565b908152602001604051809103902060405180610120016040529081600082018054610a7a90612259565b80601f0160208091040260200160405190810160405280929190818152602001828054610aa690612259565b8015610af35780601f10610ac857610100808354040283529160200191610af3565b820191906000526020600020905b815481529060010190602001808311610ad657829003601f168201915b505050505081526020016001820160009054906101000a900473ffffffffffffffffffffffffffffffffffffffff1673ffffffffffffffffffffffffffffffffffffffff1673ffffffffffffffffffffffffffffffffffffffff16815260200160028201548152602001600382015481526020016004820154815260200160058201805480602002602001604051908101604052809291908181526020018280548015610bf557602002820191906000526020600020905b8160009054906101000a900473ffffffffffffffffffffffffffffffffffffffff1673ffffffffffffffffffffffffffffffffffffffff1681526020019060010190808311610bab575b5050505050815260200160068201805480602002602001604051908101604052809291908181526020018280548015610c4d57602002820191906000526020600020905b815481526020019060010190808311610c39575b50505050508152602001600782018054610c6690612259565b80601f0160208091040260200160405190810160405280929190818152602001828054610c9290612259565b8015610cdf5780601f10610cb457610100808354040283529160200191610cdf565b820191906000526020600020905b815481529060010190602001808311610cc257829003601f168201915b50505050508152602001600882015481525050828281518110610d0557610d04612595565b5b60200260200101819052508080610d1b906125c4565b915050610a1d565b508092505050919050565b60008082604051610d3f91906122c7565b9081526020016040518091039020905060008160050180549050905080826004015411610da1576040517f08c379a0000000000000000000000000000000000000000000000000000000008152600401610d9890612659565b60405180910390fd5b6000826003015411610de8576040517f08c379a0000000000000000000000000000000000000000000000000000000008152600401610ddf906126c5565b60405180910390fd5b3382600501600183610dfa919061230d565b81548110610e0b57610e0a612595565b5b9060005260206000200160006101000a81548173ffffffffffffffffffffffffffffffffffffffff021916908373ffffffffffffffffffffffffffffffffffffffff160217905550600081836004015414610e7557610e6e828460030154611732565b9050610e7d565b826003015490505b80836003016000828254610e9191906126e5565b9250508190555060003373ffffffffffffffffffffffffffffffffffffffff1682604051610ebe906124de565b60006040518083038185875af1925050503d8060008114610efb576040519150601f19603f3d011682016040523d82523d6000602084013e610f00565b606091505b5050905080610f44576040517f08c379a0000000000000000000000000000000000000000000000000000000008152600401610f3b9061253f565b60405180910390fd5b600160003373ffffffffffffffffffffffffffffffffffffffff1673ffffffffffffffffffffffffffffffffffffffff16815260200190815260200160002085908060018154018082558091505060019003906000526020600020016000909190919091509080519060200190610fbc9291906117e1565b508184600601600185610fcf919061230d565b81548110610fe057610fdf612595565b5b90600052602060002001819055507f5e540da4d7c1b62cc394357318d97c58afa8d4121adf901800766bec5c6c037a600160405161101e919061257a565b60405180910390a15050505050565b606060003411611072576040517f08c379a000000000000000000000000000000000000000000000000000000000815260040161106990612765565b60405180910390fd5b33426040516020016110859291906127a3565b6040516020818303038152906040529050806000826040516110a791906122c7565b908152602001604051809103902060000190805190602001906110cb9291906117e1565b50336000826040516110dd91906122c7565b908152602001604051809103902060010160006101000a81548173ffffffffffffffffffffffffffffffffffffffff021916908373ffffffffffffffffffffffffffffffffffffffff1602179055503460008260405161113d91906122c7565b9081526020016040518091039020600201819055503460008260405161116391906122c7565b9081526020016040518091039020600301819055508260008260405161118991906122c7565b908152602001604051809103902060040181905550816000826040516111af91906122c7565b908152602001604051809103902060070190805190602001906111d3929190611867565b50426000826040516111e591906122c7565b908152602001604051809103902060080181905550600260003373ffffffffffffffffffffffffffffffffffffffff1673ffffffffffffffffffffffffffffffffffffffff168152602001908152602001600020819080600181540180825580915050600190039060005260206000200160009091909190915090805190602001906112729291906117e1565b507f04ed59b1950be882c876bb0f615bbbaa7941c4f35cf8dde65d0814585a6ccdd6816040516112a29190611a8b565b60405180910390a192915050565b60606000600160008473ffffffffffffffffffffffffffffffffffffffff1673ffffffffffffffffffffffffffffffffffffffff168152602001908152602001600020805480602002602001604051908101604052809291908181526020016000905b828210156113bf57838290600052602060002001805461133290612259565b80601f016020809104026020016040519081016040528092919081815260200182805461135e90612259565b80156113ab5780601f10611380576101008083540402835291602001916113ab565b820191906000526020600020905b81548152906001019060200180831161138e57829003601f168201915b505050505081526020019060010190611313565b5050505090506000815167ffffffffffffffff8111156113e2576113e1611ab7565b5b60405190808252806020026020018201604052801561141b57816020015b61140861177f565b8152602001906001900390816114005790505b50905060005b825181101561172757600083828151811061143f5761143e612595565b5b602002602001015160405161145491906122c7565b90815260200160405180910390206040518061012001604052908160008201805461147e90612259565b80601f01602080910402602001604051908101604052809291908181526020018280546114aa90612259565b80156114f75780601f106114cc576101008083540402835291602001916114f7565b820191906000526020600020905b8154815290600101906020018083116114da57829003601f168201915b505050505081526020016001820160009054906101000a900473ffffffffffffffffffffffffffffffffffffffff1673ffffffffffffffffffffffffffffffffffffffff1673ffffffffffffffffffffffffffffffffffffffff168152602001600282015481526020016003820154815260200160048201548152602001600582018054806020026020016040519081016040528092919081815260200182805480156115f957602002820191906000526020600020905b8160009054906101000a900473ffffffffffffffffffffffffffffffffffffffff1673ffffffffffffffffffffffffffffffffffffffff16815260200190600101908083116115af575b505050505081526020016006820180548060200260200160405190810160405280929190818152602001828054801561165157602002820191906000526020600020905b81548152602001906001019080831161163d575b5050505050815260200160078201805461166a90612259565b80601f016020809104026020016040519081016040528092919081815260200182805461169690612259565b80156116e35780601f106116b8576101008083540402835291602001916116e3565b820191906000526020600020905b8154815290600101906020018083116116c657829003601f168201915b5050505050815260200160088201548152505082828151811061170957611708612595565b5b6020026020010181905250808061171f906125c4565b915050611421565b508092505050919050565b6000600182844260405160200161174a9291906127ed565b6040516020818303038152906040528051906020012060001c61176d9190612848565b611777919061230d565b905092915050565b60405180610120016040528060608152602001600073ffffffffffffffffffffffffffffffffffffffff168152602001600081526020016000815260200160008152602001606081526020016060815260200160608152602001600081525090565b8280546117ed90612259565b90600052602060002090601f01602090048101928261180f5760008555611856565b82601f1061182857805160ff1916838001178555611856565b82800160010185558215611856579182015b8281111561185557825182559160200191906001019061183a565b5b50905061186391906118ed565b5090565b82805461187390612259565b90600052602060002090601f01602090048101928261189557600085556118dc565b82601f106118ae57805160ff19168380011785556118dc565b828001600101855582156118dc579182015b828111156118db5782518255916020019190600101906118c0565b5b5090506118e991906118ed565b5090565b5b808211156119065760008160009055506001016118ee565b5090565b6000604051905090565b600080fd5b600080fd5b600073ffffffffffffffffffffffffffffffffffffffff82169050919050565b60006119498261191e565b9050919050565b6119598161193e565b811461196457600080fd5b50565b60008135905061197681611950565b92915050565b6000819050919050565b61198f8161197c565b811461199a57600080fd5b50565b6000813590506119ac81611986565b92915050565b600080604083850312156119c9576119c8611914565b5b60006119d785828601611967565b92505060206119e88582860161199d565b9150509250929050565b600081519050919050565b600082825260208201905092915050565b60005b83811015611a2c578082015181840152602081019050611a11565b83811115611a3b576000848401525b50505050565b6000601f19601f8301169050919050565b6000611a5d826119f2565b611a6781856119fd565b9350611a77818560208601611a0e565b611a8081611a41565b840191505092915050565b60006020820190508181036000830152611aa58184611a52565b905092915050565b600080fd5b600080fd5b7f4e487b7100000000000000000000000000000000000000000000000000000000600052604160045260246000fd5b611aef82611a41565b810181811067ffffffffffffffff82111715611b0e57611b0d611ab7565b5b80604052505050565b6000611b2161190a565b9050611b2d8282611ae6565b919050565b600067ffffffffffffffff821115611b4d57611b4c611ab7565b5b611b5682611a41565b9050602081019050919050565b82818337600083830152505050565b6000611b85611b8084611b32565b611b17565b905082815260208101848484011115611ba157611ba0611ab2565b5b611bac848285611b63565b509392505050565b600082601f830112611bc957611bc8611aad565b5b8135611bd9848260208601611b72565b91505092915050565b600060208284031215611bf857611bf7611914565b5b600082013567ffffffffffffffff811115611c1657611c15611919565b5b611c2284828501611bb4565b91505092915050565b600082825260208201905092915050565b6000611c47826119f2565b611c518185611c2b565b9350611c61818560208601611a0e565b611c6a81611a41565b840191505092915050565b611c7e8161193e565b82525050565b611c8d8161197c565b82525050565b600081519050919050565b600082825260208201905092915050565b6000819050602082019050919050565b6000611ccb8383611c75565b60208301905092915050565b6000602082019050919050565b6000611cef82611c93565b611cf98185611c9e565b9350611d0483611caf565b8060005b83811015611d35578151611d1c8882611cbf565b9750611d2783611cd7565b925050600181019050611d08565b5085935050505092915050565b600081519050919050565b600082825260208201905092915050565b6000819050602082019050919050565b6000611d7a8383611c84565b60208301905092915050565b6000602082019050919050565b6000611d9e82611d42565b611da88185611d4d565b9350611db383611d5e565b8060005b83811015611de4578151611dcb8882611d6e565b9750611dd683611d86565b925050600181019050611db7565b5085935050505092915050565b600081519050919050565b600082825260208201905092915050565b6000611e1882611df1565b611e228185611dfc565b9350611e32818560208601611a0e565b611e3b81611a41565b840191505092915050565b6000610120830160008301518482036000860152611e648282611c3c565b9150506020830151611e796020860182611c75565b506040830151611e8c6040860182611c84565b506060830151611e9f6060860182611c84565b506080830151611eb26080860182611c84565b5060a083015184820360a0860152611eca8282611ce4565b91505060c083015184820360c0860152611ee48282611d93565b91505060e083015184820360e0860152611efe8282611e0d565b915050610100830151611f15610100860182611c84565b508091505092915050565b60006020820190508181036000830152611f3a8184611e46565b905092915050565b600060208284031215611f5857611f57611914565b5b6000611f6684828501611967565b91505092915050565b600081519050919050565b600082825260208201905092915050565b6000819050602082019050919050565b6000610120830160008301518482036000860152611fb98282611c3c565b9150506020830151611fce6020860182611c75565b506040830151611fe16040860182611c84565b506060830151611ff46060860182611c84565b5060808301516120076080860182611c84565b5060a083015184820360a086015261201f8282611ce4565b91505060c083015184820360c08601526120398282611d93565b91505060e083015184820360e08601526120538282611e0d565b91505061010083015161206a610100860182611c84565b508091505092915050565b60006120818383611f9b565b905092915050565b6000602082019050919050565b60006120a182611f6f565b6120ab8185611f7a565b9350836020820285016120bd85611f8b565b8060005b858110156120f957848403895281516120da8582612075565b94506120e583612089565b925060208a019950506001810190506120c1565b50829750879550505050505092915050565b600060208201905081810360008301526121258184612096565b905092915050565b600067ffffffffffffffff82111561214857612147611ab7565b5b61215182611a41565b9050602081019050919050565b600061217161216c8461212d565b611b17565b90508281526020810184848401111561218d5761218c611ab2565b5b612198848285611b63565b509392505050565b600082601f8301126121b5576121b4611aad565b5b81356121c584826020860161215e565b91505092915050565b600080604083850312156121e5576121e4611914565b5b60006121f38582860161199d565b925050602083013567ffffffffffffffff81111561221457612213611919565b5b612220858286016121a0565b9150509250929050565b7f4e487b7100000000000000000000000000000000000000000000000000000000600052602260045260246000fd5b6000600282049050600182168061227157607f821691505b602082108114156122855761228461222a565b5b50919050565b600081905092915050565b60006122a1826119f2565b6122ab818561228b565b93506122bb818560208601611a0e565b80840191505092915050565b60006122d38284612296565b915081905092915050565b7f4e487b7100000000000000000000000000000000000000000000000000000000600052601160045260246000fd5b60006123188261197c565b91506123238361197c565b9250827fffffffffffffffffffffffffffffffffffffffffffffffffffffffffffffffff03821115612358576123576122de565b5b828201905092915050565b600082825260208201905092915050565b7f546f6f20736f6f6e000000000000000000000000000000000000000000000000600082015250565b60006123aa600883612363565b91506123b582612374565b602082019050919050565b600060208201905081810360008301526123d98161239d565b9050919050565b7f456d70747920656e76656c6f7065000000000000000000000000000000000000600082015250565b6000612416600e83612363565b9150612421826123e0565b602082019050919050565b6000602082019050818103600083015261244581612409565b9050919050565b7f4e6f742063726561746f72000000000000000000000000000000000000000000600082015250565b6000612482600b83612363565b915061248d8261244c565b602082019050919050565b600060208201905081810360008301526124b181612475565b9050919050565b50565b60006124c860008361228b565b91506124d3826124b8565b600082019050919050565b60006124e9826124bb565b9150819050919050565b7f4661696c656420746f2073656e64204574686572000000000000000000000000600082015250565b6000612529601483612363565b9150612534826124f3565b602082019050919050565b600060208201905081810360008301526125588161251c565b9050919050565b60008115159050919050565b6125748161255f565b82525050565b600060208201905061258f600083018461256b565b92915050565b7f4e487b7100000000000000000000000000000000000000000000000000000000600052603260045260246000fd5b60006125cf8261197c565b91507fffffffffffffffffffffffffffffffffffffffffffffffffffffffffffffffff821415612602576126016122de565b5b600182019050919050565b7f6d6178207061727469636970616e747320657863656564656400000000000000600082015250565b6000612643601983612363565b915061264e8261260d565b602082019050919050565b6000602082019050818103600083015261267281612636565b9050919050565b7f746f6b656e7320616c7265616479206469737472696275746564000000000000600082015250565b60006126af601a83612363565b91506126ba82612679565b602082019050919050565b600060208201905081810360008301526126de816126a2565b9050919050565b60006126f08261197c565b91506126fb8361197c565b92508282101561270e5761270d6122de565b5b828203905092915050565b7f496e73756666696369656e742066756e64730000000000000000000000000000600082015250565b600061274f601283612363565b915061275a82612719565b602082019050919050565b6000602082019050818103600083015261277e81612742565b9050919050565b61278e8161193e565b82525050565b61279d8161197c565b82525050565b60006040820190506127b86000830185612785565b6127c56020830184612794565b9392505050565b6000819050919050565b6127e76127e28261197c565b6127cc565b82525050565b60006127f982856127d6565b60208201915061280982846127d6565b6020820191508190509392505050565b7f4e487b7100000000000000000000000000000000000000000000000000000000600052601260045260246000fd5b60006128538261197c565b915061285e8361197c565b92508261286e5761286d612819565b5b82820690509291505056fea26469706673582212209e8b4c0ac5587987b5b49ab200b0d6e800810684e90d787dd200a8fe48df159d64736f6c63430008090033",
  "immutableReferences": {},
  "source": "// SPDX-License-Identifier: MIT\npragma solidity ^0.8.0;\n\ncontract RedEnvelope {\n  struct Envelopes{\n    bytes envelopeId;\n    address creator;\n    uint totalTokenAmount;\n    uint tokenAmount;\n    uint participantsLimit;\n    address[] participants;\n    uint[] participantsPrize;\n    string message;\n    uint creationTime;\n  }\n  mapping(bytes => Envelopes) envelope;\n  mapping(address => bytes []) public receiverToEnvelope;\n  mapping(address => bytes []) public creatorToEnvelope;\n\n  event EnvelopCreated(bytes envelopeId);\n  event Claimed(bool claimed);\n  event CreatorWithdrawn(bool withdrawn);\n\tconstructor () \n\t{\n\t}\n\n\t/********************************************************\n\t*                                                       *\n\t*                     MAIN FUNCTIONS                    *\n\t*                                                       *\n\t********************************************************/\n\n  /// @notice create an envelope and share money with your people\n  /// @param _message welcome message of the envelope\n  /// @dev creates envelope and stores crypto in this contract to later on distribute with participants\n\tfunction createEnvelope(uint _participantsLimit, string memory _message) external payable returns(bytes memory _envelopeId) {\n    require(msg.value > 0, \"Insufficient funds\");\n    _envelopeId =  abi.encode(msg.sender, block.timestamp);\n    envelope[_envelopeId].envelopeId = _envelopeId;\n    envelope[_envelopeId].creator = msg.sender;\n    envelope[_envelopeId].totalTokenAmount = msg.value;\n    envelope[_envelopeId].tokenAmount = msg.value;\n    envelope[_envelopeId].participantsLimit = _participantsLimit;\n    envelope[_envelopeId].message = _message;\n    envelope[_envelopeId].creationTime = block.timestamp;\n    creatorToEnvelope[msg.sender].push(_envelopeId);\n    emit EnvelopCreated(_envelopeId);\n\t}\n\n  /// @notice Open envelope before others and get crypto gift!\n  /// @param _envelopeId id of envelope in bytes256\n  /// @dev contract distributes crypto to msg.sender\n  function claim(bytes memory _envelopeId) external {\n    Envelopes storage _envelope = envelope[_envelopeId];\n    uint _currentParticipant = _envelope.participants.length;\n    require(_envelope.participantsLimit >  _currentParticipant, \"max participants exceeded\");\n    require(_envelope.tokenAmount > 0, \"tokens already distributed\");\n    _envelope.participants[_currentParticipant + 1] = msg.sender;\n    uint _amountToDeliver;\n    // If it is the last possible participant it shares the remaining crypto. Otherwise it shares a random amount of crypto\n    if(_envelope.participantsLimit != _currentParticipant) {\n      _amountToDeliver = _getAmountToDeliver(_currentParticipant, _envelope.tokenAmount);\n    } else {\n      _amountToDeliver = _envelope.tokenAmount;\n    }\n    _envelope.tokenAmount -= _amountToDeliver;\n    (bool sent, ) = payable(msg.sender).call{value: _amountToDeliver}(\"\");\n    require(sent, \"Failed to send Ether\");\n    receiverToEnvelope[msg.sender].push(_envelopeId);\n    _envelope.participantsPrize[_currentParticipant + 1] = _amountToDeliver;\n    emit Claimed(true);\n  }\n\n  /// @notice Claim your crypto locked in contract\n  /// @param _envelopeId id of envelope in bytes256\n  /** @dev In case it's been more than 24 hours and participants have not claimed all possible crypto,\n           the envelope creator can claim crypto locked in this contract**/\n  function creatorWithdraw(bytes memory _envelopeId) external {\n    Envelopes storage _envelope = envelope[_envelopeId];\n    require(_envelope.creationTime + 86400 >= block.timestamp, \"Too soon\");\n    require(_envelope.tokenAmount == 0, \"Empty envelope\");\n    require(_envelope.creator == msg.sender, \"Not creator\");\n    _envelope.tokenAmount = 0;\n    (bool sent, ) = payable(msg.sender).call{value: _envelope.tokenAmount}(\"\");\n    require(sent, \"Failed to send Ether\");\n    emit  CreatorWithdrawn(true);\n  }\n\n\t/********************************************************\n  *                                                       *\n  *                INTERNAL FUNCTIONS                     *\n  *                                                       *\n  ********************************************************/\n\n  /// @dev used in claim function\n  /// @param _participantsCounter current number of participants for the envelope\n  /// @param _tokenAmount amount of crypto left in the envelope\n  /// @return _amountToDeliver amount of crypto to be deliver to claimer. It is random number between 1 and _tokenAmount\n  function _getAmountToDeliver(uint _participantsCounter, uint _tokenAmount) internal view returns (uint _amountToDeliver) {\n    _amountToDeliver = (uint(keccak256(abi.encodePacked(_participantsCounter,block.timestamp))) % _tokenAmount) + 1;\n  }\n\n\t/********************************************************\n  *                                                       *\n  *                     GET FUNCTIONS                     *\n  *                                                       *\n  ********************************************************/\n\n  function getEnvelope(bytes memory _envelopeId) external view returns(Envelopes memory) {\n    return envelope[_envelopeId];\n  }\n\n  /// @dev used in front-end to display creator envelope data\n  /// @param _creatorAddress address of envelope creator\n  /// @return _envelopes All envelopes created by user\n  function getCreatorEnvelopes(address _creatorAddress) external view returns (Envelopes[] memory) {\n    bytes[] memory _creatorToEnvelope = creatorToEnvelope[_creatorAddress];\n    Envelopes[] memory _envelopes = new Envelopes[](_creatorToEnvelope.length);\n\n    for(uint i = 0; i < _creatorToEnvelope.length; i++) {\n      _envelopes[i] = envelope[_creatorToEnvelope[i]];\n    }\n    return _envelopes;\n  }\n\n  /// @dev used in front-end to display receiver envelope data\n  /// @param _receiverAddress address of envelope creator\n  /// @return _envelopes All envelopes a user has opened\n  function getReceiverEnvelopes(address _receiverAddress) external view returns (Envelopes[] memory) {\n    bytes[] memory _receiverToEnvelope = receiverToEnvelope[_receiverAddress];\n    Envelopes[] memory _envelopes = new Envelopes[](_receiverToEnvelope.length);\n    for(uint i = 0; i < _receiverToEnvelope.length; i++) {\n      _envelopes[i] = envelope[_receiverToEnvelope[i]];\n    }\n    return _envelopes;\n  }\n}",
  "sourcePath": "/Users/juanda/GitProjects/ETH-RED-ENVELOPE/src/contracts/RedEnvelope.sol",
  "compiler": {
    "name": "solc",
    "version": "0.8.9+commit.e5eed63a.Emscripten.clang"
  },
  "schemaVersion": "3.4.8",
  "updatedAt": "2022-07-27T22:02:01.870Z",
  "networkType": "ethereum",
  "devdoc": {
    "kind": "dev",
    "methods": {
      "claim(bytes)": {
        "details": "contract distributes crypto to msg.sender",
        "params": {
          "_envelopeId": "id of envelope in bytes256"
        }
      },
      "createEnvelope(uint256,string)": {
        "details": "creates envelope and stores crypto in this contract to later on distribute with participants",
        "params": {
          "_message": "welcome message of the envelope"
        }
      },
      "creatorWithdraw(bytes)": {
        "details": "In case it's been more than 24 hours and participants have not claimed all possible crypto, the envelope creator can claim crypto locked in this contract*"
      },
      "getCreatorEnvelopes(address)": {
        "details": "used in front-end to display creator envelope data",
        "params": {
          "_creatorAddress": "address of envelope creator"
        },
        "returns": {
          "_0": "_envelopes All envelopes created by user"
        }
      },
      "getReceiverEnvelopes(address)": {
        "details": "used in front-end to display receiver envelope data",
        "params": {
          "_receiverAddress": "address of envelope creator"
        },
        "returns": {
          "_0": "_envelopes All envelopes a user has opened"
        }
      }
    },
    "version": 1
  },
  "userdoc": {
    "kind": "user",
    "methods": {
      "claim(bytes)": {
        "notice": "Open envelope before others and get crypto gift!"
      },
      "createEnvelope(uint256,string)": {
        "notice": "create an envelope and share money with your people"
      }
    },
    "version": 1
  }
}