{
  "contractName": "RedEnvelope",
  "abi": [
    {
      "inputs": [],
      "stateMutability": "nonpayable",
      "type": "constructor"
    },
    {
      "inputs": [
        {
          "internalType": "uint256",
          "name": "_tokenAmount",
          "type": "uint256"
        },
        {
          "internalType": "uint256",
          "name": "_participantsLimit",
          "type": "uint256"
        }
      ],
      "name": "createEnvelope",
      "outputs": [],
      "stateMutability": "payable",
      "type": "function"
    },
    {
      "inputs": [
        {
          "internalType": "address",
          "name": "_claimer",
          "type": "address"
        },
        {
          "internalType": "uint256",
          "name": "_envelopeId",
          "type": "uint256"
        }
      ],
      "name": "claim",
      "outputs": [],
      "stateMutability": "nonpayable",
      "type": "function"
    }
  ],
  "bytecode": "0x608060405234801561001057600080fd5b506106ef806100206000396000f3fe6080604052600436106100295760003560e01c8063aad3ec961461002e578063b6a74bfb14610057575b600080fd5b34801561003a57600080fd5b5061005560048036038101906100509190610336565b610073565b005b610071600480360381019061006c9190610376565b610208565b005b600060016000838152602001908152602001600020905080600201548160010154116100d4576040517f08c379a00000000000000000000000000000000000000000000000000000000081526004016100cb90610413565b60405180910390fd5b600081600001541161011b576040517f08c379a00000000000000000000000000000000000000000000000000000000081526004016101129061047f565b60405180910390fd5b806002016000815480929190610130906104ce565b9190505550600081600201548260010154146101985760018260000154836002015442604051602001610164929190610537565b6040516020818303038152906040528051906020012060001c6101879190610592565b61019191906105c3565b90506101a0565b816000015490505b808260000160008282546101b49190610619565b925050819055508373ffffffffffffffffffffffffffffffffffffffff166108fc829081150290604051600060405180830381858888f19350505050158015610201573d6000803e3d6000fd5b5050505050565b60008081548092919061021a906104ce565b9190505550813414610261576040517f08c379a000000000000000000000000000000000000000000000000000000000815260040161025890610699565b60405180910390fd5b81600160008054815260200190815260200160002060000181905550806001600080548152602001908152602001600020600101819055505050565b600080fd5b600073ffffffffffffffffffffffffffffffffffffffff82169050919050565b60006102cd826102a2565b9050919050565b6102dd816102c2565b81146102e857600080fd5b50565b6000813590506102fa816102d4565b92915050565b6000819050919050565b61031381610300565b811461031e57600080fd5b50565b6000813590506103308161030a565b92915050565b6000806040838503121561034d5761034c61029d565b5b600061035b858286016102eb565b925050602061036c85828601610321565b9150509250929050565b6000806040838503121561038d5761038c61029d565b5b600061039b85828601610321565b92505060206103ac85828601610321565b9150509250929050565b600082825260208201905092915050565b7f6d6178207061727469636970616e747320657863656564656400000000000000600082015250565b60006103fd6019836103b6565b9150610408826103c7565b602082019050919050565b6000602082019050818103600083015261042c816103f0565b9050919050565b7f746f6b656e7320616c7265616479206469737472696275746564000000000000600082015250565b6000610469601a836103b6565b915061047482610433565b602082019050919050565b600060208201905081810360008301526104988161045c565b9050919050565b7f4e487b7100000000000000000000000000000000000000000000000000000000600052601160045260246000fd5b60006104d982610300565b91507fffffffffffffffffffffffffffffffffffffffffffffffffffffffffffffffff820361050b5761050a61049f565b5b600182019050919050565b6000819050919050565b61053161052c82610300565b610516565b82525050565b60006105438285610520565b6020820191506105538284610520565b6020820191508190509392505050565b7f4e487b7100000000000000000000000000000000000000000000000000000000600052601260045260246000fd5b600061059d82610300565b91506105a883610300565b9250826105b8576105b7610563565b5b828206905092915050565b60006105ce82610300565b91506105d983610300565b9250827fffffffffffffffffffffffffffffffffffffffffffffffffffffffffffffffff0382111561060e5761060d61049f565b5b828201905092915050565b600061062482610300565b915061062f83610300565b9250828210156106425761064161049f565b5b828203905092915050565b7f496e73756666696369656e742066756e64730000000000000000000000000000600082015250565b60006106836012836103b6565b915061068e8261064d565b602082019050919050565b600060208201905081810360008301526106b281610676565b905091905056fea2646970667358221220da976463a8b1690917f9cd7414941c136e29c0ff6f349c48f8d91a57042a923064736f6c634300080f0033",
  "immutableReferences": {},
  "source": "// SPDX-License-Identifier: MIT\r\npragma solidity ^0.8.0;\r\n\r\ncontract RedEnvelope {\r\n  uint envelopeCounter;\r\n  struct Envelopes{\r\n    uint tokenAmount;\r\n    uint participantsLimit;\r\n    uint participantsCounter;\r\n  }\r\n  mapping(uint => Envelopes) envelope;\r\n\tconstructor () \r\n\t{\r\n\t}\r\n\r\n\t/********************************************************\r\n\t*                                                      *\r\n\t*                     MAIN FUNCTIONS                   *\r\n\t*                                                      *\r\n\t********************************************************/\r\n\r\n\tfunction createEnvelope(uint _tokenAmount, uint _participantsLimit) external payable{\r\n\t\tenvelopeCounter++;\r\n    require(msg.value == _tokenAmount, \"Insufficient funds\");\r\n    envelope[envelopeCounter].tokenAmount = _tokenAmount;\r\n    envelope[envelopeCounter].participantsLimit = _participantsLimit;\r\n\t}\r\n\r\n  function claim(address _claimer, uint _envelopeId) external {\r\n    Envelopes storage _envelope = envelope[_envelopeId];\r\n    require(_envelope.participantsLimit >  _envelope.participantsCounter, \"max participants exceeded\");\r\n    require(_envelope.tokenAmount > 0, \"tokens already distributed\");\r\n    _envelope.participantsCounter++;\r\n    uint _amountToDeliver;\r\n    if(_envelope.participantsLimit != _envelope.participantsCounter) {\r\n      _amountToDeliver = (uint(keccak256(abi.encodePacked(_envelope.participantsCounter,block.timestamp))) % _envelope.tokenAmount) + 1;\r\n    } else {\r\n      _amountToDeliver = _envelope.tokenAmount;\r\n    }\r\n    _envelope.tokenAmount -= _amountToDeliver;\r\n    payable(_claimer).transfer(_amountToDeliver);\r\n  }\r\n}",
  "sourcePath": "C:\\Users\\enriq\\Desktop\\ethcc-envelopes\\src\\contracts\\RedEnvelope.sol",
  "compiler": {
    "name": "solc",
    "version": "0.8.15+commit.e14f2714.Emscripten.clang"
  },
  "schemaVersion": "3.4.8",
  "updatedAt": "2022-07-26T15:32:05.771Z",
  "devdoc": {
    "kind": "dev",
    "methods": {},
    "version": 1
  },
  "userdoc": {
    "kind": "user",
    "methods": {},
    "version": 1
  }
}