{
  "contractName": "RedEnvelope",
  "abi": [
    {
      "inputs": [],
      "stateMutability": "nonpayable",
      "type": "constructor"
    },
    {
      "anonymous": false,
      "inputs": [
        {
          "indexed": false,
          "internalType": "bool",
          "name": "claimed",
          "type": "bool"
        }
      ],
      "name": "Claimed",
      "type": "event"
    },
    {
      "anonymous": false,
      "inputs": [
        {
          "indexed": false,
          "internalType": "bool",
          "name": "withdrawn",
          "type": "bool"
        }
      ],
      "name": "CreatorWithdrawn",
      "type": "event"
    },
    {
      "anonymous": false,
      "inputs": [
        {
          "indexed": false,
          "internalType": "bytes",
          "name": "envelopeId",
          "type": "bytes"
        }
      ],
      "name": "EnvelopCreated",
      "type": "event"
    },
    {
      "inputs": [
        {
          "internalType": "address",
          "name": "",
          "type": "address"
        },
        {
          "internalType": "uint256",
          "name": "",
          "type": "uint256"
        }
      ],
      "name": "creatorToEnvelope",
      "outputs": [
        {
          "internalType": "bytes",
          "name": "",
          "type": "bytes"
        }
      ],
      "stateMutability": "view",
      "type": "function",
      "constant": true
    },
    {
      "inputs": [
        {
          "internalType": "address",
          "name": "",
          "type": "address"
        },
        {
          "internalType": "uint256",
          "name": "",
          "type": "uint256"
        }
      ],
      "name": "receiverToEnvelope",
      "outputs": [
        {
          "internalType": "bytes",
          "name": "",
          "type": "bytes"
        }
      ],
      "stateMutability": "view",
      "type": "function",
      "constant": true
    },
    {
      "inputs": [
        {
          "internalType": "uint256",
          "name": "_participantsLimit",
          "type": "uint256"
        },
        {
          "internalType": "string",
          "name": "_message",
          "type": "string"
        }
      ],
      "name": "createEnvelope",
      "outputs": [
        {
          "internalType": "bytes",
          "name": "_envelopeId",
          "type": "bytes"
        }
      ],
      "stateMutability": "payable",
      "type": "function",
      "payable": true
    },
    {
      "inputs": [
        {
          "internalType": "bytes",
          "name": "_envelopeId",
          "type": "bytes"
        }
      ],
      "name": "claim",
      "outputs": [],
      "stateMutability": "nonpayable",
      "type": "function"
    },
    {
      "inputs": [
        {
          "internalType": "bytes",
          "name": "_envelopeId",
          "type": "bytes"
        }
      ],
      "name": "creatorWithdraw",
      "outputs": [],
      "stateMutability": "nonpayable",
      "type": "function"
    },
    {
      "inputs": [
        {
          "internalType": "bytes",
          "name": "_envelopeId",
          "type": "bytes"
        }
      ],
      "name": "getEnvelope",
      "outputs": [
        {
          "components": [
            {
              "internalType": "address",
              "name": "creator",
              "type": "address"
            },
            {
              "internalType": "uint256",
              "name": "tokenAmount",
              "type": "uint256"
            },
            {
              "internalType": "uint256",
              "name": "participantsLimit",
              "type": "uint256"
            },
            {
              "internalType": "address[]",
              "name": "participants",
              "type": "address[]"
            },
            {
              "internalType": "uint256[]",
              "name": "participantsPrize",
              "type": "uint256[]"
            },
            {
              "internalType": "string",
              "name": "message",
              "type": "string"
            },
            {
              "internalType": "uint256",
              "name": "creationTime",
              "type": "uint256"
            }
          ],
          "internalType": "struct RedEnvelope.Envelopes",
          "name": "",
          "type": "tuple"
        }
      ],
      "stateMutability": "view",
      "type": "function",
      "constant": true
    },
    {
      "inputs": [
        {
          "internalType": "address",
          "name": "_creatorAddress",
          "type": "address"
        }
      ],
      "name": "getCreatorEnvelopes",
      "outputs": [
        {
          "components": [
            {
              "internalType": "address",
              "name": "creator",
              "type": "address"
            },
            {
              "internalType": "uint256",
              "name": "tokenAmount",
              "type": "uint256"
            },
            {
              "internalType": "uint256",
              "name": "participantsLimit",
              "type": "uint256"
            },
            {
              "internalType": "address[]",
              "name": "participants",
              "type": "address[]"
            },
            {
              "internalType": "uint256[]",
              "name": "participantsPrize",
              "type": "uint256[]"
            },
            {
              "internalType": "string",
              "name": "message",
              "type": "string"
            },
            {
              "internalType": "uint256",
              "name": "creationTime",
              "type": "uint256"
            }
          ],
          "internalType": "struct RedEnvelope.Envelopes[]",
          "name": "",
          "type": "tuple[]"
        }
      ],
      "stateMutability": "view",
      "type": "function",
      "constant": true
    },
    {
      "inputs": [
        {
          "internalType": "address",
          "name": "_receiverAddress",
          "type": "address"
        }
      ],
      "name": "getReceiverEnvelopes",
      "outputs": [
        {
          "components": [
            {
              "internalType": "address",
              "name": "creator",
              "type": "address"
            },
            {
              "internalType": "uint256",
              "name": "tokenAmount",
              "type": "uint256"
            },
            {
              "internalType": "uint256",
              "name": "participantsLimit",
              "type": "uint256"
            },
            {
              "internalType": "address[]",
              "name": "participants",
              "type": "address[]"
            },
            {
              "internalType": "uint256[]",
              "name": "participantsPrize",
              "type": "uint256[]"
            },
            {
              "internalType": "string",
              "name": "message",
              "type": "string"
            },
            {
              "internalType": "uint256",
              "name": "creationTime",
              "type": "uint256"
            }
          ],
          "internalType": "struct RedEnvelope.Envelopes[]",
          "name": "",
          "type": "tuple[]"
        }
      ],
      "stateMutability": "view",
      "type": "function",
      "constant": true
    }
  ],
  "bytecode": "0x608060405234801561001057600080fd5b506125c3806100206000396000f3fe60806040526004361061007b5760003560e01c806372ff6a5b1161004e57806372ff6a5b14610160578063c63ff8dd1461019d578063e8cd1b45146101c6578063ea4a03ff146101f65761007b565b8063097362a7146100805780630f697db1146100bd5780631bb97917146100fa5780635587df3214610137575b600080fd5b34801561008c57600080fd5b506100a760048036038101906100a29190611770565b610233565b6040516100b49190611849565b60405180910390f35b3480156100c957600080fd5b506100e460048036038101906100df91906119a0565b6102ec565b6040516100f19190611c64565b60405180910390f35b34801561010657600080fd5b50610121600480360381019061011c9190611770565b610510565b60405161012e9190611849565b60405180910390f35b34801561014357600080fd5b5061015e600480360381019061015991906119a0565b6105c9565b005b34801561016c57600080fd5b5061018760048036038101906101829190611c86565b61080f565b6040516101949190611e1f565b60405180910390f35b3480156101a957600080fd5b506101c460048036038101906101bf91906119a0565b610bf4565b005b6101e060048036038101906101db9190611ee2565b610ef3565b6040516101ed9190611849565b60405180910390f35b34801561020257600080fd5b5061021d60048036038101906102189190611c86565b61111a565b60405161022a9190611e1f565b60405180910390f35b6001602052816000526040600020818154811061024f57600080fd5b9060005260206000200160009150915050805461026b90611f6d565b80601f016020809104026020016040519081016040528092919081815260200182805461029790611f6d565b80156102e45780601f106102b9576101008083540402835291602001916102e4565b820191906000526020600020905b8154815290600101906020018083116102c757829003601f168201915b505050505081565b6102f461154c565b6000826040516103049190611fdb565b90815260200160405180910390206040518060e00160405290816000820160009054906101000a900473ffffffffffffffffffffffffffffffffffffffff1673ffffffffffffffffffffffffffffffffffffffff1673ffffffffffffffffffffffffffffffffffffffff16815260200160018201548152602001600282015481526020016003820180548060200260200160405190810160405280929190818152602001828054801561040c57602002820191906000526020600020905b8160009054906101000a900473ffffffffffffffffffffffffffffffffffffffff1673ffffffffffffffffffffffffffffffffffffffff16815260200190600101908083116103c2575b505050505081526020016004820180548060200260200160405190810160405280929190818152602001828054801561046457602002820191906000526020600020905b815481526020019060010190808311610450575b5050505050815260200160058201805461047d90611f6d565b80601f01602080910402602001604051908101604052809291908181526020018280546104a990611f6d565b80156104f65780601f106104cb576101008083540402835291602001916104f6565b820191906000526020600020905b8154815290600101906020018083116104d957829003601f168201915b505050505081526020016006820154815250509050919050565b6002602052816000526040600020818154811061052c57600080fd5b9060005260206000200160009150915050805461054890611f6d565b80601f016020809104026020016040519081016040528092919081815260200182805461057490611f6d565b80156105c15780601f10610596576101008083540402835291602001916105c1565b820191906000526020600020905b8154815290600101906020018083116105a457829003601f168201915b505050505081565b600080826040516105da9190611fdb565b90815260200160405180910390209050426201518082600601546105fe9190612021565b101561063f576040517f08c379a0000000000000000000000000000000000000000000000000000000008152600401610636906120d4565b60405180910390fd5b6000816001015414610686576040517f08c379a000000000000000000000000000000000000000000000000000000000815260040161067d90612140565b60405180910390fd5b3373ffffffffffffffffffffffffffffffffffffffff168160000160009054906101000a900473ffffffffffffffffffffffffffffffffffffffff1673ffffffffffffffffffffffffffffffffffffffff1614610718576040517f08c379a000000000000000000000000000000000000000000000000000000000815260040161070f906121ac565b60405180910390fd5b6000816001018190555060003373ffffffffffffffffffffffffffffffffffffffff16826001015460405161074c906121f2565b60006040518083038185875af1925050503d8060008114610789576040519150601f19603f3d011682016040523d82523d6000602084013e61078e565b606091505b50509050806107d2576040517f08c379a00000000000000000000000000000000000000000000000000000000081526004016107c990612253565b60405180910390fd5b7ff20fa2c3ffcf196667bdf2bca7a88a69d22300769a98c86ee91ca7c6cd53be6a6001604051610802919061228e565b60405180910390a1505050565b60606000600260008473ffffffffffffffffffffffffffffffffffffffff1673ffffffffffffffffffffffffffffffffffffffff168152602001908152602001600020805480602002602001604051908101604052809291908181526020016000905b8282101561091e57838290600052602060002001805461089190611f6d565b80601f01602080910402602001604051908101604052809291908181526020018280546108bd90611f6d565b801561090a5780601f106108df5761010080835404028352916020019161090a565b820191906000526020600020905b8154815290600101906020018083116108ed57829003601f168201915b505050505081526020019060010190610872565b5050505090506000815167ffffffffffffffff81111561094157610940611875565b5b60405190808252806020026020018201604052801561097a57816020015b61096761154c565b81526020019060019003908161095f5790505b50905060005b8251811015610be957600083828151811061099e5761099d6122a9565b5b60200260200101516040516109b39190611fdb565b90815260200160405180910390206040518060e00160405290816000820160009054906101000a900473ffffffffffffffffffffffffffffffffffffffff1673ffffffffffffffffffffffffffffffffffffffff1673ffffffffffffffffffffffffffffffffffffffff168152602001600182015481526020016002820154815260200160038201805480602002602001604051908101604052809291908181526020018280548015610abb57602002820191906000526020600020905b8160009054906101000a900473ffffffffffffffffffffffffffffffffffffffff1673ffffffffffffffffffffffffffffffffffffffff1681526020019060010190808311610a71575b5050505050815260200160048201805480602002602001604051908101604052809291908181526020018280548015610b1357602002820191906000526020600020905b815481526020019060010190808311610aff575b50505050508152602001600582018054610b2c90611f6d565b80601f0160208091040260200160405190810160405280929190818152602001828054610b5890611f6d565b8015610ba55780601f10610b7a57610100808354040283529160200191610ba5565b820191906000526020600020905b815481529060010190602001808311610b8857829003601f168201915b50505050508152602001600682015481525050828281518110610bcb57610bca6122a9565b5b60200260200101819052508080610be1906122d8565b915050610980565b508092505050919050565b60008082604051610c059190611fdb565b9081526020016040518091039020905060008160030180549050905080826002015411610c67576040517f08c379a0000000000000000000000000000000000000000000000000000000008152600401610c5e9061236d565b60405180910390fd5b6000826001015411610cae576040517f08c379a0000000000000000000000000000000000000000000000000000000008152600401610ca5906123d9565b60405180910390fd5b3382600301600183610cc09190612021565b81548110610cd157610cd06122a9565b5b9060005260206000200160006101000a81548173ffffffffffffffffffffffffffffffffffffffff021916908373ffffffffffffffffffffffffffffffffffffffff160217905550600081836002015414610d3b57610d348284600101546114ff565b9050610d43565b826001015490505b80836001016000828254610d5791906123f9565b9250508190555060003373ffffffffffffffffffffffffffffffffffffffff1682604051610d84906121f2565b60006040518083038185875af1925050503d8060008114610dc1576040519150601f19603f3d011682016040523d82523d6000602084013e610dc6565b606091505b5050905080610e0a576040517f08c379a0000000000000000000000000000000000000000000000000000000008152600401610e0190612253565b60405180910390fd5b600160003373ffffffffffffffffffffffffffffffffffffffff1673ffffffffffffffffffffffffffffffffffffffff16815260200190815260200160002085908060018154018082558091505060019003906000526020600020016000909190919091509080519060200190610e8292919061159f565b508184600401600185610e959190612021565b81548110610ea657610ea56122a9565b5b90600052602060002001819055507f5e540da4d7c1b62cc394357318d97c58afa8d4121adf901800766bec5c6c037a6001604051610ee4919061228e565b60405180910390a15050505050565b606060003411610f38576040517f08c379a0000000000000000000000000000000000000000000000000000000008152600401610f2f90612479565b60405180910390fd5b3342604051602001610f4b9291906124b7565b604051602081830303815290604052905033600082604051610f6d9190611fdb565b908152602001604051809103902060000160006101000a81548173ffffffffffffffffffffffffffffffffffffffff021916908373ffffffffffffffffffffffffffffffffffffffff16021790555034600082604051610fcd9190611fdb565b90815260200160405180910390206001018190555082600082604051610ff39190611fdb565b908152602001604051809103902060020181905550816000826040516110199190611fdb565b9081526020016040518091039020600501908051906020019061103d929190611625565b504260008260405161104f9190611fdb565b908152602001604051809103902060060181905550600260003373ffffffffffffffffffffffffffffffffffffffff1673ffffffffffffffffffffffffffffffffffffffff168152602001908152602001600020819080600181540180825580915050600190039060005260206000200160009091909190915090805190602001906110dc92919061159f565b507f04ed59b1950be882c876bb0f615bbbaa7941c4f35cf8dde65d0814585a6ccdd68160405161110c9190611849565b60405180910390a192915050565b60606000600160008473ffffffffffffffffffffffffffffffffffffffff1673ffffffffffffffffffffffffffffffffffffffff168152602001908152602001600020805480602002602001604051908101604052809291908181526020016000905b8282101561122957838290600052602060002001805461119c90611f6d565b80601f01602080910402602001604051908101604052809291908181526020018280546111c890611f6d565b80156112155780601f106111ea57610100808354040283529160200191611215565b820191906000526020600020905b8154815290600101906020018083116111f857829003601f168201915b50505050508152602001906001019061117d565b5050505090506000815167ffffffffffffffff81111561124c5761124b611875565b5b60405190808252806020026020018201604052801561128557816020015b61127261154c565b81526020019060019003908161126a5790505b50905060005b82518110156114f45760008382815181106112a9576112a86122a9565b5b60200260200101516040516112be9190611fdb565b90815260200160405180910390206040518060e00160405290816000820160009054906101000a900473ffffffffffffffffffffffffffffffffffffffff1673ffffffffffffffffffffffffffffffffffffffff1673ffffffffffffffffffffffffffffffffffffffff1681526020016001820154815260200160028201548152602001600382018054806020026020016040519081016040528092919081815260200182805480156113c657602002820191906000526020600020905b8160009054906101000a900473ffffffffffffffffffffffffffffffffffffffff1673ffffffffffffffffffffffffffffffffffffffff168152602001906001019080831161137c575b505050505081526020016004820180548060200260200160405190810160405280929190818152602001828054801561141e57602002820191906000526020600020905b81548152602001906001019080831161140a575b5050505050815260200160058201805461143790611f6d565b80601f016020809104026020016040519081016040528092919081815260200182805461146390611f6d565b80156114b05780601f10611485576101008083540402835291602001916114b0565b820191906000526020600020905b81548152906001019060200180831161149357829003601f168201915b505050505081526020016006820154815250508282815181106114d6576114d56122a9565b5b602002602001018190525080806114ec906122d8565b91505061128b565b508092505050919050565b60006001828442604051602001611517929190612501565b6040516020818303038152906040528051906020012060001c61153a919061255c565b6115449190612021565b905092915050565b6040518060e00160405280600073ffffffffffffffffffffffffffffffffffffffff1681526020016000815260200160008152602001606081526020016060815260200160608152602001600081525090565b8280546115ab90611f6d565b90600052602060002090601f0160209004810192826115cd5760008555611614565b82601f106115e657805160ff1916838001178555611614565b82800160010185558215611614579182015b828111156116135782518255916020019190600101906115f8565b5b50905061162191906116ab565b5090565b82805461163190611f6d565b90600052602060002090601f016020900481019282611653576000855561169a565b82601f1061166c57805160ff191683800117855561169a565b8280016001018555821561169a579182015b8281111561169957825182559160200191906001019061167e565b5b5090506116a791906116ab565b5090565b5b808211156116c45760008160009055506001016116ac565b5090565b6000604051905090565b600080fd5b600080fd5b600073ffffffffffffffffffffffffffffffffffffffff82169050919050565b6000611707826116dc565b9050919050565b611717816116fc565b811461172257600080fd5b50565b6000813590506117348161170e565b92915050565b6000819050919050565b61174d8161173a565b811461175857600080fd5b50565b60008135905061176a81611744565b92915050565b60008060408385031215611787576117866116d2565b5b600061179585828601611725565b92505060206117a68582860161175b565b9150509250929050565b600081519050919050565b600082825260208201905092915050565b60005b838110156117ea5780820151818401526020810190506117cf565b838111156117f9576000848401525b50505050565b6000601f19601f8301169050919050565b600061181b826117b0565b61182581856117bb565b93506118358185602086016117cc565b61183e816117ff565b840191505092915050565b600060208201905081810360008301526118638184611810565b905092915050565b600080fd5b600080fd5b7f4e487b7100000000000000000000000000000000000000000000000000000000600052604160045260246000fd5b6118ad826117ff565b810181811067ffffffffffffffff821117156118cc576118cb611875565b5b80604052505050565b60006118df6116c8565b90506118eb82826118a4565b919050565b600067ffffffffffffffff82111561190b5761190a611875565b5b611914826117ff565b9050602081019050919050565b82818337600083830152505050565b600061194361193e846118f0565b6118d5565b90508281526020810184848401111561195f5761195e611870565b5b61196a848285611921565b509392505050565b600082601f8301126119875761198661186b565b5b8135611997848260208601611930565b91505092915050565b6000602082840312156119b6576119b56116d2565b5b600082013567ffffffffffffffff8111156119d4576119d36116d7565b5b6119e084828501611972565b91505092915050565b6119f2816116fc565b82525050565b611a018161173a565b82525050565b600081519050919050565b600082825260208201905092915050565b6000819050602082019050919050565b6000611a3f83836119e9565b60208301905092915050565b6000602082019050919050565b6000611a6382611a07565b611a6d8185611a12565b9350611a7883611a23565b8060005b83811015611aa9578151611a908882611a33565b9750611a9b83611a4b565b925050600181019050611a7c565b5085935050505092915050565b600081519050919050565b600082825260208201905092915050565b6000819050602082019050919050565b6000611aee83836119f8565b60208301905092915050565b6000602082019050919050565b6000611b1282611ab6565b611b1c8185611ac1565b9350611b2783611ad2565b8060005b83811015611b58578151611b3f8882611ae2565b9750611b4a83611afa565b925050600181019050611b2b565b5085935050505092915050565b600081519050919050565b600082825260208201905092915050565b6000611b8c82611b65565b611b968185611b70565b9350611ba68185602086016117cc565b611baf816117ff565b840191505092915050565b600060e083016000830151611bd260008601826119e9565b506020830151611be560208601826119f8565b506040830151611bf860408601826119f8565b5060608301518482036060860152611c108282611a58565b91505060808301518482036080860152611c2a8282611b07565b91505060a083015184820360a0860152611c448282611b81565b91505060c0830151611c5960c08601826119f8565b508091505092915050565b60006020820190508181036000830152611c7e8184611bba565b905092915050565b600060208284031215611c9c57611c9b6116d2565b5b6000611caa84828501611725565b91505092915050565b600081519050919050565b600082825260208201905092915050565b6000819050602082019050919050565b600060e083016000830151611cf760008601826119e9565b506020830151611d0a60208601826119f8565b506040830151611d1d60408601826119f8565b5060608301518482036060860152611d358282611a58565b91505060808301518482036080860152611d4f8282611b07565b91505060a083015184820360a0860152611d698282611b81565b91505060c0830151611d7e60c08601826119f8565b508091505092915050565b6000611d958383611cdf565b905092915050565b6000602082019050919050565b6000611db582611cb3565b611dbf8185611cbe565b935083602082028501611dd185611ccf565b8060005b85811015611e0d5784840389528151611dee8582611d89565b9450611df983611d9d565b925060208a01995050600181019050611dd5565b50829750879550505050505092915050565b60006020820190508181036000830152611e398184611daa565b905092915050565b600067ffffffffffffffff821115611e5c57611e5b611875565b5b611e65826117ff565b9050602081019050919050565b6000611e85611e8084611e41565b6118d5565b905082815260208101848484011115611ea157611ea0611870565b5b611eac848285611921565b509392505050565b600082601f830112611ec957611ec861186b565b5b8135611ed9848260208601611e72565b91505092915050565b60008060408385031215611ef957611ef86116d2565b5b6000611f078582860161175b565b925050602083013567ffffffffffffffff811115611f2857611f276116d7565b5b611f3485828601611eb4565b9150509250929050565b7f4e487b7100000000000000000000000000000000000000000000000000000000600052602260045260246000fd5b60006002820490506001821680611f8557607f821691505b60208210811415611f9957611f98611f3e565b5b50919050565b600081905092915050565b6000611fb5826117b0565b611fbf8185611f9f565b9350611fcf8185602086016117cc565b80840191505092915050565b6000611fe78284611faa565b915081905092915050565b7f4e487b7100000000000000000000000000000000000000000000000000000000600052601160045260246000fd5b600061202c8261173a565b91506120378361173a565b9250827fffffffffffffffffffffffffffffffffffffffffffffffffffffffffffffffff0382111561206c5761206b611ff2565b5b828201905092915050565b600082825260208201905092915050565b7f546f6f20736f6f6e000000000000000000000000000000000000000000000000600082015250565b60006120be600883612077565b91506120c982612088565b602082019050919050565b600060208201905081810360008301526120ed816120b1565b9050919050565b7f456d70747920656e76656c6f7065000000000000000000000000000000000000600082015250565b600061212a600e83612077565b9150612135826120f4565b602082019050919050565b600060208201905081810360008301526121598161211d565b9050919050565b7f4e6f742063726561746f72000000000000000000000000000000000000000000600082015250565b6000612196600b83612077565b91506121a182612160565b602082019050919050565b600060208201905081810360008301526121c581612189565b9050919050565b50565b60006121dc600083611f9f565b91506121e7826121cc565b600082019050919050565b60006121fd826121cf565b9150819050919050565b7f4661696c656420746f2073656e64204574686572000000000000000000000000600082015250565b600061223d601483612077565b915061224882612207565b602082019050919050565b6000602082019050818103600083015261226c81612230565b9050919050565b60008115159050919050565b61228881612273565b82525050565b60006020820190506122a3600083018461227f565b92915050565b7f4e487b7100000000000000000000000000000000000000000000000000000000600052603260045260246000fd5b60006122e38261173a565b91507fffffffffffffffffffffffffffffffffffffffffffffffffffffffffffffffff82141561231657612315611ff2565b5b600182019050919050565b7f6d6178207061727469636970616e747320657863656564656400000000000000600082015250565b6000612357601983612077565b915061236282612321565b602082019050919050565b600060208201905081810360008301526123868161234a565b9050919050565b7f746f6b656e7320616c7265616479206469737472696275746564000000000000600082015250565b60006123c3601a83612077565b91506123ce8261238d565b602082019050919050565b600060208201905081810360008301526123f2816123b6565b9050919050565b60006124048261173a565b915061240f8361173a565b92508282101561242257612421611ff2565b5b828203905092915050565b7f496e73756666696369656e742066756e64730000000000000000000000000000600082015250565b6000612463601283612077565b915061246e8261242d565b602082019050919050565b6000602082019050818103600083015261249281612456565b9050919050565b6124a2816116fc565b82525050565b6124b18161173a565b82525050565b60006040820190506124cc6000830185612499565b6124d960208301846124a8565b9392505050565b6000819050919050565b6124fb6124f68261173a565b6124e0565b82525050565b600061250d82856124ea565b60208201915061251d82846124ea565b6020820191508190509392505050565b7f4e487b7100000000000000000000000000000000000000000000000000000000600052601260045260246000fd5b60006125678261173a565b91506125728361173a565b9250826125825761258161252d565b5b82820690509291505056fea264697066735822122049d56a969a1382eb02110ffcf09f003c5308642a2c6991f2c23ed741e5c12aee64736f6c63430008090033",
  "immutableReferences": {},
  "source": "// SPDX-License-Identifier: MIT\npragma solidity ^0.8.0;\n\ncontract RedEnvelope {\n  struct Envelopes{\n    address creator;\n    uint tokenAmount;\n    uint participantsLimit;\n    address[] participants;\n    uint[] participantsPrize;\n    string message;\n    uint creationTime;\n  }\n  mapping(bytes => Envelopes) envelope;\n  mapping(address => bytes []) public receiverToEnvelope;\n  mapping(address => bytes []) public creatorToEnvelope;\n\n  event EnvelopCreated(bytes envelopeId);\n  event Claimed(bool claimed);\n  event CreatorWithdrawn(bool withdrawn);\n\tconstructor () \n\t{\n\t}\n\n\t/********************************************************\n\t*                                                       *\n\t*                     MAIN FUNCTIONS                    *\n\t*                                                       *\n\t********************************************************/\n\n  /// @notice create an envelope and share money with your people\n  /// @param _message welcome message of the envelope\n  /// @dev creates envelope and stores crypto in this contract to later on distribute with participants\n\tfunction createEnvelope(uint _participantsLimit, string memory _message) external payable returns(bytes memory _envelopeId) {\n    require(msg.value > 0, \"Insufficient funds\");\n    _envelopeId =  abi.encode(msg.sender, block.timestamp);\n    envelope[_envelopeId].creator = msg.sender;\n    envelope[_envelopeId].tokenAmount = msg.value;\n    envelope[_envelopeId].participantsLimit = _participantsLimit;\n    envelope[_envelopeId].message = _message;\n    envelope[_envelopeId].creationTime = block.timestamp;\n    creatorToEnvelope[msg.sender].push(_envelopeId);\n    emit EnvelopCreated(_envelopeId);\n\t}\n\n  /// @notice Open envelope before others and get crypto gift!\n  /// @param _envelopeId id of envelope in bytes256\n  /// @dev contract distributes crypto to msg.sender\n  function claim(bytes memory _envelopeId) external {\n    Envelopes storage _envelope = envelope[_envelopeId];\n    uint _currentParticipant = _envelope.participants.length;\n    require(_envelope.participantsLimit >  _currentParticipant, \"max participants exceeded\");\n    require(_envelope.tokenAmount > 0, \"tokens already distributed\");\n    _envelope.participants[_currentParticipant + 1] = msg.sender;\n    uint _amountToDeliver;\n    // If it is the last possible participant it shares the remaining crypto. Otherwise it shares a random amount of crypto\n    if(_envelope.participantsLimit != _currentParticipant) {\n      _amountToDeliver = _getAmountToDeliver(_currentParticipant, _envelope.tokenAmount);\n    } else {\n      _amountToDeliver = _envelope.tokenAmount;\n    }\n    _envelope.tokenAmount -= _amountToDeliver;\n    (bool sent, ) = payable(msg.sender).call{value: _amountToDeliver}(\"\");\n    require(sent, \"Failed to send Ether\");\n    receiverToEnvelope[msg.sender].push(_envelopeId);\n    _envelope.participantsPrize[_currentParticipant + 1] = _amountToDeliver;\n    emit Claimed(true);\n  }\n\n  /// @notice Claim your crypto locked in contract\n  /// @param _envelopeId id of envelope in bytes256\n  /** @dev In case it's been more than 24 hours and participants have not claimed all possible crypto,\n           the envelope creator can claim crypto locked in this contract**/\n  function creatorWithdraw(bytes memory _envelopeId) external {\n    Envelopes storage _envelope = envelope[_envelopeId];\n    require(_envelope.creationTime + 86400 >= block.timestamp, \"Too soon\");\n    require(_envelope.tokenAmount == 0, \"Empty envelope\");\n    require(_envelope.creator == msg.sender, \"Not creator\");\n    _envelope.tokenAmount = 0;\n    (bool sent, ) = payable(msg.sender).call{value: _envelope.tokenAmount}(\"\");\n    require(sent, \"Failed to send Ether\");\n    emit  CreatorWithdrawn(true);\n  }\n\n\t/********************************************************\n  *                                                       *\n  *                INTERNAL FUNCTIONS                     *\n  *                                                       *\n  ********************************************************/\n\n  /// @dev used in claim function\n  /// @param _participantsCounter current number of participants for the envelope\n  /// @param _tokenAmount amount of crypto left in the envelope\n  /// @return _amountToDeliver amount of crypto to be deliver to claimer. It is random number between 1 and _tokenAmount\n  function _getAmountToDeliver(uint _participantsCounter, uint _tokenAmount) internal view returns (uint _amountToDeliver) {\n    _amountToDeliver = (uint(keccak256(abi.encodePacked(_participantsCounter,block.timestamp))) % _tokenAmount) + 1;\n  }\n\n\t/********************************************************\n  *                                                       *\n  *                     GET FUNCTIONS                     *\n  *                                                       *\n  ********************************************************/\n\n  function getEnvelope(bytes memory _envelopeId) external view returns(Envelopes memory) {\n    return envelope[_envelopeId];\n  }\n\n  /// @dev used in front-end to display creator envelope data\n  /// @param _creatorAddress address of envelope creator\n  /// @return _envelopes All envelopes created by user\n  function getCreatorEnvelopes(address _creatorAddress) external view returns (Envelopes[] memory) {\n    bytes[] memory _creatorToEnvelope = creatorToEnvelope[_creatorAddress];\n    Envelopes[] memory _envelopes = new Envelopes[](_creatorToEnvelope.length);\n\n    for(uint i = 0; i < _creatorToEnvelope.length; i++) {\n      _envelopes[i] = envelope[_creatorToEnvelope[i]];\n    }\n    return _envelopes;\n  }\n\n  /// @dev used in front-end to display receiver envelope data\n  /// @param _receiverAddress address of envelope creator\n  /// @return _envelopes All envelopes a user has opened\n  function getReceiverEnvelopes(address _receiverAddress) external view returns (Envelopes[] memory) {\n    bytes[] memory _receiverToEnvelope = receiverToEnvelope[_receiverAddress];\n    Envelopes[] memory _envelopes = new Envelopes[](_receiverToEnvelope.length);\n    for(uint i = 0; i < _receiverToEnvelope.length; i++) {\n      _envelopes[i] = envelope[_receiverToEnvelope[i]];\n    }\n    return _envelopes;\n  }\n}",
  "sourcePath": "/Users/juanda/GitProjects/ETH-RED-ENVELOPE/src/contracts/RedEnvelope.sol",
  "compiler": {
    "name": "solc",
    "version": "0.8.9+commit.e5eed63a.Emscripten.clang"
  },
  "schemaVersion": "3.4.8",
  "updatedAt": "2022-07-27T21:32:39.871Z",
  "networkType": "ethereum",
  "devdoc": {
    "kind": "dev",
    "methods": {
      "claim(bytes)": {
        "details": "contract distributes crypto to msg.sender",
        "params": {
          "_envelopeId": "id of envelope in bytes256"
        }
      },
      "createEnvelope(uint256,string)": {
        "details": "creates envelope and stores crypto in this contract to later on distribute with participants",
        "params": {
          "_message": "welcome message of the envelope"
        }
      },
      "creatorWithdraw(bytes)": {
        "details": "In case it's been more than 24 hours and participants have not claimed all possible crypto, the envelope creator can claim crypto locked in this contract*"
      },
      "getCreatorEnvelopes(address)": {
        "details": "used in front-end to display creator envelope data",
        "params": {
          "_creatorAddress": "address of envelope creator"
        },
        "returns": {
          "_0": "_envelopes All envelopes created by user"
        }
      },
      "getReceiverEnvelopes(address)": {
        "details": "used in front-end to display receiver envelope data",
        "params": {
          "_receiverAddress": "address of envelope creator"
        },
        "returns": {
          "_0": "_envelopes All envelopes a user has opened"
        }
      }
    },
    "version": 1
  },
  "userdoc": {
    "kind": "user",
    "methods": {
      "claim(bytes)": {
        "notice": "Open envelope before others and get crypto gift!"
      },
      "createEnvelope(uint256,string)": {
        "notice": "create an envelope and share money with your people"
      }
    },
    "version": 1
  }
}